{
  "contractName": "Queue",
  "abi": [
    {
      "inputs": [],
      "stateMutability": "nonpayable",
      "type": "constructor"
    },
    {
      "inputs": [],
      "name": "first",
      "outputs": [
        {
          "internalType": "uint256",
          "name": "",
          "type": "uint256"
        }
      ],
      "stateMutability": "view",
      "type": "function"
    },
    {
      "inputs": [],
      "name": "last",
      "outputs": [
        {
          "internalType": "uint256",
          "name": "",
          "type": "uint256"
        }
      ],
      "stateMutability": "view",
      "type": "function"
    },
    {
      "inputs": [
        {
          "internalType": "uint256",
          "name": "",
          "type": "uint256"
        }
      ],
      "name": "queue",
      "outputs": [
        {
          "internalType": "uint256",
          "name": "amount",
          "type": "uint256"
        },
        {
          "internalType": "uint256",
          "name": "timestamp",
          "type": "uint256"
        }
      ],
      "stateMutability": "view",
      "type": "function"
    },
    {
      "inputs": [],
      "name": "currBlockNumber",
      "outputs": [
        {
          "internalType": "uint256",
          "name": "",
          "type": "uint256"
        }
      ],
      "stateMutability": "view",
      "type": "function"
    },
    {
      "inputs": [
        {
          "internalType": "uint256",
          "name": "_amount",
          "type": "uint256"
        },
        {
          "internalType": "uint256",
          "name": "_timestamp",
          "type": "uint256"
        }
      ],
      "name": "enqueue",
      "outputs": [],
      "stateMutability": "nonpayable",
      "type": "function"
    },
    {
      "inputs": [],
      "name": "returnFirstTime",
      "outputs": [
        {
          "internalType": "uint256",
          "name": "",
          "type": "uint256"
        }
      ],
      "stateMutability": "view",
      "type": "function"
    },
    {
      "inputs": [],
      "name": "returnFirstAmount",
      "outputs": [
        {
          "internalType": "uint256",
          "name": "",
          "type": "uint256"
        }
      ],
      "stateMutability": "view",
      "type": "function"
    },
    {
      "inputs": [],
      "name": "dequeue",
      "outputs": [],
      "stateMutability": "nonpayable",
      "type": "function"
    },
    {
      "inputs": [],
      "name": "isEmpty",
      "outputs": [
        {
          "internalType": "bool",
          "name": "",
          "type": "bool"
        }
      ],
      "stateMutability": "view",
      "type": "function"
    }
  ],
  "bytecode": "0x608060405260018055600060025534801561001957600080fd5b506104c8806100296000396000f3fe608060405234801561001057600080fd5b50600436106100935760003560e01c80635af7b35a116100665780635af7b35a14610110578063681fe70c1461012e578063957908d11461014c578063982d64d414610156578063ddf0b0091461017257610093565b806318f70f9614610098578063238149bc146100b65780633df4ddf4146100d457806347799da8146100f2575b600080fd5b6100a06101a3565b6040516100ad919061039c565b60405180910390f35b6100be6101c2565b6040516100cb919061039c565b60405180910390f35b6100dc6101ca565b6040516100e9919061039c565b60405180910390f35b6100fa6101d0565b604051610107919061039c565b60405180910390f35b6101186101d6565b604051610125919061039c565b60405180910390f35b6101366101f5565b6040516101439190610381565b60405180910390f35b610154610214565b005b610170600480360381019061016b9190610327565b610267565b005b61018c600480360381019061018791906102fe565b6102c5565b60405161019a9291906103b7565b60405180910390f35b6000806000600154815260200190815260200160002060000154905090565b600042905090565b60015481565b60025481565b6000806000600154815260200190815260200160002060010154905090565b6000600254600154111561020c5760019050610211565b600090505b90565b600154600254101561022557600080fd5b600080600154815260200190815260200160002060008082016000905560018201600090555050600180600082825461025e91906103e0565b92505081905550565b60016002600082825461027a91906103e0565b92505081905550604051806040016040528083815260200182815250600080600254815260200190815260200160002060008201518160000155602082015181600101559050505050565b60006020528060005260406000206000915090508060000154908060010154905082565b6000813590506102f88161047b565b92915050565b60006020828403121561031057600080fd5b600061031e848285016102e9565b91505092915050565b6000806040838503121561033a57600080fd5b6000610348858286016102e9565b9250506020610359858286016102e9565b9150509250929050565b61036c81610436565b82525050565b61037b81610442565b82525050565b60006020820190506103966000830184610363565b92915050565b60006020820190506103b16000830184610372565b92915050565b60006040820190506103cc6000830185610372565b6103d96020830184610372565b9392505050565b60006103eb82610442565b91506103f683610442565b9250827fffffffffffffffffffffffffffffffffffffffffffffffffffffffffffffffff0382111561042b5761042a61044c565b5b828201905092915050565b60008115159050919050565b6000819050919050565b7f4e487b7100000000000000000000000000000000000000000000000000000000600052601160045260246000fd5b61048481610442565b811461048f57600080fd5b5056fea264697066735822122036bcea49a97b774ad09f76eff2bbb6a7c0f803c78a570a96d0d2894cb23ee29764736f6c63430008000033",
  "immutableReferences": {},
  "source": "//SPDX-License-Identifier: MIT\r\npragma solidity ^0.8.0;\r\n\r\ncontract Queue {\r\n    mapping(uint256 => Data) public queue;\r\n    uint256 public first = 1;\r\n    uint256 public last = 0;\r\n    struct Data{\r\n        uint amount;\r\n        uint256 timestamp;        \r\n    }\r\n    \r\n    constructor() {\r\n        \r\n    }\r\n    \r\n    function currBlockNumber() public view returns(uint256){\r\n        return block.timestamp;\r\n    }\r\n    function enqueue(uint _amount, uint256 _timestamp) public {\r\n        last += 1;\r\n        queue[last] = Data({\r\n            amount: _amount,\r\n            timestamp: _timestamp\r\n            \r\n        });\r\n    }\r\n    \r\n    function returnFirstTime() public view returns(uint256){\r\n        return queue[first].timestamp;\r\n    }\r\n    \r\n    function returnFirstAmount() public view returns(uint){\r\n        return queue[first].amount;\r\n    }\r\n\r\n    function dequeue() public {\r\n        require(last >= first);  // non-empty queue\r\n\r\n        delete queue[first];\r\n        first += 1;\r\n    }\r\n    \r\n    function isEmpty() public view returns(bool){\r\n        if(first > last){\r\n            return true;\r\n        }\r\n        return false;\r\n    }\r\n}",
  "sourcePath": "C:\\Users\\HP\\Desktop\\NaboStaking\\contracts\\Queue.sol",
  "compiler": {
    "name": "solc",
    "version": "0.8.0+commit.c7dfd78e.Emscripten.clang"
  },
  "schemaVersion": "3.4.2",
  "updatedAt": "2021-08-15T17:53:09.928Z",
  "devdoc": {
    "kind": "dev",
    "methods": {},
    "version": 1
  },
  "userdoc": {
    "kind": "user",
    "methods": {},
    "version": 1
  }
}