{
  "contractName": "Queue",
  "abi": [
    {
      "inputs": [],
      "name": "first",
      "outputs": [
        {
          "internalType": "uint256",
          "name": "",
          "type": "uint256"
        }
      ],
      "stateMutability": "view",
      "type": "function"
    },
    {
      "inputs": [],
      "name": "last",
      "outputs": [
        {
          "internalType": "uint256",
          "name": "",
          "type": "uint256"
        }
      ],
      "stateMutability": "view",
      "type": "function"
    },
    {
      "inputs": [
        {
          "internalType": "uint256",
          "name": "",
          "type": "uint256"
        }
      ],
      "name": "queue",
      "outputs": [
        {
          "internalType": "uint256",
          "name": "amount",
          "type": "uint256"
        },
        {
          "internalType": "uint256",
          "name": "timestamp",
          "type": "uint256"
        }
      ],
      "stateMutability": "view",
      "type": "function"
    },
    {
      "inputs": [
        {
          "internalType": "uint256",
          "name": "_amount",
          "type": "uint256"
        },
        {
          "internalType": "uint256",
          "name": "_timestamp",
          "type": "uint256"
        }
      ],
      "name": "enqueue",
      "outputs": [],
      "stateMutability": "nonpayable",
      "type": "function"
    },
    {
      "inputs": [],
      "name": "returnFirstTime",
      "outputs": [
        {
          "internalType": "uint256",
          "name": "",
          "type": "uint256"
        }
      ],
      "stateMutability": "view",
      "type": "function"
    },
    {
      "inputs": [],
      "name": "returnFirstAmount",
      "outputs": [
        {
          "internalType": "uint256",
          "name": "",
          "type": "uint256"
        }
      ],
      "stateMutability": "view",
      "type": "function"
    },
    {
      "inputs": [],
      "name": "dequeue",
      "outputs": [],
      "stateMutability": "nonpayable",
      "type": "function"
    },
    {
      "inputs": [],
      "name": "isEmpty",
      "outputs": [
        {
          "internalType": "bool",
          "name": "",
          "type": "bool"
        }
      ],
      "stateMutability": "view",
      "type": "function"
    }
  ],
  "bytecode": "0x608060405260018055600060025534801561001957600080fd5b50610496806100296000396000f3fe608060405234801561001057600080fd5b50600436106100885760003560e01c8063681fe70c1161005b578063681fe70c14610105578063957908d114610123578063982d64d41461012d578063ddf0b0091461014957610088565b806318f70f961461008d5780633df4ddf4146100ab57806347799da8146100c95780635af7b35a146100e7575b600080fd5b61009561017a565b6040516100a2919061036a565b60405180910390f35b6100b3610199565b6040516100c0919061036a565b60405180910390f35b6100d161019f565b6040516100de919061036a565b60405180910390f35b6100ef6101a5565b6040516100fc919061036a565b60405180910390f35b61010d6101c4565b60405161011a919061034f565b60405180910390f35b61012b6101e2565b005b610147600480360381019061014291906102f5565b610235565b005b610163600480360381019061015e91906102cc565b610293565b604051610171929190610385565b60405180910390f35b6000806000600154815260200190815260200160002060000154905090565b60015481565b60025481565b6000806000600154815260200190815260200160002060010154905090565b6000600254600154106101da57600190506101df565b600090505b90565b60015460025410156101f357600080fd5b600080600154815260200190815260200160002060008082016000905560018201600090555050600180600082825461022c91906103ae565b92505081905550565b60016002600082825461024891906103ae565b92505081905550604051806040016040528083815260200182815250600080600254815260200190815260200160002060008201518160000155602082015181600101559050505050565b60006020528060005260406000206000915090508060000154908060010154905082565b6000813590506102c681610449565b92915050565b6000602082840312156102de57600080fd5b60006102ec848285016102b7565b91505092915050565b6000806040838503121561030857600080fd5b6000610316858286016102b7565b9250506020610327858286016102b7565b9150509250929050565b61033a81610404565b82525050565b61034981610410565b82525050565b60006020820190506103646000830184610331565b92915050565b600060208201905061037f6000830184610340565b92915050565b600060408201905061039a6000830185610340565b6103a76020830184610340565b9392505050565b60006103b982610410565b91506103c483610410565b9250827fffffffffffffffffffffffffffffffffffffffffffffffffffffffffffffffff038211156103f9576103f861041a565b5b828201905092915050565b60008115159050919050565b6000819050919050565b7f4e487b7100000000000000000000000000000000000000000000000000000000600052601160045260246000fd5b61045281610410565b811461045d57600080fd5b5056fea26469706673582212209daaf5b383f2b9c8578075732c7274b15a8dbe7eff6cd20f3706bf945ca120fd64736f6c63430008000033",
  "immutableReferences": {},
  "source": "//SPDX-License-Identifier: MIT\r\npragma solidity ^0.8.0;\r\n\r\ncontract Queue {\r\n    mapping(uint256 => Data) public queue;\r\n    uint256 public first = 1;\r\n    uint256 public last = 0;\r\n    struct Data{\r\n        uint amount;\r\n        uint256 timestamp;\r\n    }\r\n\r\n    function enqueue(uint _amount, uint256 _timestamp) public {\r\n        last += 1;\r\n        queue[last] = Data({\r\n            amount: _amount,\r\n            timestamp: _timestamp\r\n            \r\n        });\r\n    }\r\n    \r\n    function returnFirstTime() public view returns(uint256){\r\n        return queue[first].timestamp;\r\n    }\r\n    \r\n    function returnFirstAmount() public view returns(uint){\r\n        return queue[first].amount;\r\n    }\r\n\r\n    function dequeue() public {\r\n        require(last >= first);  // non-empty queue\r\n\r\n        delete queue[first];\r\n        first += 1;\r\n    }\r\n    \r\n    function isEmpty() public view returns(bool){\r\n        if(first >= last){\r\n            return true;\r\n        }\r\n        return false;\r\n    }\r\n}",
  "sourcePath": "C:\\Users\\lenovo\\OneDrive\\Desktop\\proj\\contracts\\Queue.sol",
  "compiler": {
    "name": "solc",
    "version": "0.8.0+commit.c7dfd78e.Emscripten.clang"
  },
  "schemaVersion": "3.4.1",
  "updatedAt": "2021-08-14T18:56:49.727Z",
  "devdoc": {
    "kind": "dev",
    "methods": {},
    "version": 1
  },
  "userdoc": {
    "kind": "user",
    "methods": {},
    "version": 1
  }
}