{
  "contractName": "Referral",
  "abi": [
    {
      "inputs": [],
      "stateMutability": "nonpayable",
      "type": "constructor"
    },
    {
      "inputs": [
        {
          "internalType": "address",
          "name": "",
          "type": "address"
        }
      ],
      "name": "commissions",
      "outputs": [
        {
          "internalType": "uint256",
          "name": "",
          "type": "uint256"
        }
      ],
      "stateMutability": "view",
      "type": "function"
    },
    {
      "inputs": [
        {
          "internalType": "uint256",
          "name": "",
          "type": "uint256"
        }
      ],
      "name": "depositCommission",
      "outputs": [
        {
          "internalType": "uint256",
          "name": "",
          "type": "uint256"
        }
      ],
      "stateMutability": "view",
      "type": "function"
    },
    {
      "inputs": [],
      "name": "depositLevels",
      "outputs": [
        {
          "internalType": "uint256",
          "name": "",
          "type": "uint256"
        }
      ],
      "stateMutability": "view",
      "type": "function"
    },
    {
      "inputs": [
        {
          "internalType": "uint256",
          "name": "",
          "type": "uint256"
        }
      ],
      "name": "interestCommission",
      "outputs": [
        {
          "internalType": "uint256",
          "name": "",
          "type": "uint256"
        }
      ],
      "stateMutability": "view",
      "type": "function"
    },
    {
      "inputs": [],
      "name": "interestLevels",
      "outputs": [
        {
          "internalType": "uint256",
          "name": "",
          "type": "uint256"
        }
      ],
      "stateMutability": "view",
      "type": "function"
    },
    {
      "inputs": [],
      "name": "owner",
      "outputs": [
        {
          "internalType": "address",
          "name": "",
          "type": "address"
        }
      ],
      "stateMutability": "view",
      "type": "function"
    },
    {
      "inputs": [
        {
          "internalType": "uint256",
          "name": "",
          "type": "uint256"
        }
      ],
      "name": "topLevels",
      "outputs": [
        {
          "internalType": "address",
          "name": "addr",
          "type": "address"
        },
        {
          "internalType": "address",
          "name": "parent",
          "type": "address"
        },
        {
          "internalType": "uint256",
          "name": "level",
          "type": "uint256"
        }
      ],
      "stateMutability": "view",
      "type": "function"
    },
    {
      "inputs": [
        {
          "internalType": "address",
          "name": "",
          "type": "address"
        }
      ],
      "name": "users",
      "outputs": [
        {
          "internalType": "address",
          "name": "addr",
          "type": "address"
        },
        {
          "internalType": "address",
          "name": "parent",
          "type": "address"
        },
        {
          "internalType": "uint256",
          "name": "level",
          "type": "uint256"
        }
      ],
      "stateMutability": "view",
      "type": "function"
    },
    {
      "inputs": [
        {
          "internalType": "address",
          "name": "_addr",
          "type": "address"
        }
      ],
      "name": "toBytes",
      "outputs": [
        {
          "internalType": "bytes32",
          "name": "",
          "type": "bytes32"
        }
      ],
      "stateMutability": "pure",
      "type": "function"
    },
    {
      "inputs": [
        {
          "internalType": "uint256",
          "name": "_commission",
          "type": "uint256"
        }
      ],
      "name": "addInterestLevel",
      "outputs": [],
      "stateMutability": "nonpayable",
      "type": "function"
    },
    {
      "inputs": [
        {
          "internalType": "uint256",
          "name": "_commission",
          "type": "uint256"
        }
      ],
      "name": "addDepositLevel",
      "outputs": [],
      "stateMutability": "nonpayable",
      "type": "function"
    },
    {
      "inputs": [
        {
          "internalType": "address",
          "name": "_parent",
          "type": "address"
        }
      ],
      "name": "addUser",
      "outputs": [],
      "stateMutability": "nonpayable",
      "type": "function"
    },
    {
      "inputs": [
        {
          "internalType": "uint256",
          "name": "_interest",
          "type": "uint256"
        },
        {
          "internalType": "address",
          "name": "_addr",
          "type": "address"
        }
      ],
      "name": "distributeInterestCommissions",
      "outputs": [],
      "stateMutability": "nonpayable",
      "type": "function"
    },
    {
      "inputs": [
        {
          "internalType": "uint256",
          "name": "_deposit",
          "type": "uint256"
        },
        {
          "internalType": "address",
          "name": "_addr",
          "type": "address"
        }
      ],
      "name": "distributeDepositCommissions",
      "outputs": [],
      "stateMutability": "nonpayable",
      "type": "function"
    },
    {
      "inputs": [
        {
          "internalType": "address",
          "name": "_addr",
          "type": "address"
        }
      ],
      "name": "removeUser",
      "outputs": [],
      "stateMutability": "nonpayable",
      "type": "function"
    }
  ],
  "bytecode": "0x608060405234801561001057600080fd5b50336000806101000a81548173ffffffffffffffffffffffffffffffffffffffff021916908373ffffffffffffffffffffffffffffffffffffffff16021790555060006001819055506000600281905550611c83806100706000396000f3fe608060405234801561001057600080fd5b50600436106100f55760003560e01c80638da5cb5b11610097578063bff774af11610066578063bff774af14610284578063d5faafbe146102a0578063d606f550146102be578063dc9f3a18146102ee576100f5565b80638da5cb5b146101fc578063985751881461021a5780639d6c899014610236578063a87430ba14610252576100f5565b8063593b79fe116100d3578063593b79fe14610162578063593cec51146101925780635f11f468146101ae5780637b05afb5146101cc576100f5565b80630e79bb02146100fa5780632410d6541461012a578063421b2d8b14610146575b600080fd5b610114600480360381019061010f9190611903565b610320565b6040516101219190611a02565b60405180910390f35b610144600480360381019061013f919061192c565b610338565b005b610160600480360381019061015b91906118da565b610891565b005b61017c600480360381019061017791906118da565b610cac565b60405161018991906119e7565b60405180910390f35b6101ac60048036038101906101a7919061192c565b610cd3565b005b6101b661122c565b6040516101c39190611a02565b60405180910390f35b6101e660048036038101906101e191906118da565b611232565b6040516101f39190611a02565b60405180910390f35b61020461124a565b6040516102119190611995565b60405180910390f35b610234600480360381019061022f91906118da565b61126e565b005b610250600480360381019061024b9190611903565b6115c3565b005b61026c600480360381019061026791906118da565b61164a565b60405161027b939291906119b0565b60405180910390f35b61029e60048036038101906102999190611903565b6116b4565b005b6102a861173b565b6040516102b59190611a02565b60405180910390f35b6102d860048036038101906102d39190611903565b611741565b6040516102e59190611a02565b60405180910390f35b61030860048036038101906103039190611903565b611759565b604051610317939291906119b0565b60405180910390f35b60046020528060005260406000206000915090505481565b6000600360008373ffffffffffffffffffffffffffffffffffffffff1673ffffffffffffffffffffffffffffffffffffffff1681526020019081526020016000206040518060800160405290816000820160009054906101000a900473ffffffffffffffffffffffffffffffffffffffff1673ffffffffffffffffffffffffffffffffffffffff1673ffffffffffffffffffffffffffffffffffffffff1681526020016001820160009054906101000a900473ffffffffffffffffffffffffffffffffffffffff1673ffffffffffffffffffffffffffffffffffffffff1673ffffffffffffffffffffffffffffffffffffffff1681526020016002820180548060200260200160405190810160405280929190818152602001828054801561047f57602002820191906000526020600020905b81548152602001906001019080831161046b575b505050505081526020016003820154815250509050600081602001519050600073ffffffffffffffffffffffffffffffffffffffff168173ffffffffffffffffffffffffffffffffffffffff1614156104d757600080fd5b6000600360008373ffffffffffffffffffffffffffffffffffffffff1673ffffffffffffffffffffffffffffffffffffffff1681526020019081526020016000206040518060800160405290816000820160009054906101000a900473ffffffffffffffffffffffffffffffffffffffff1673ffffffffffffffffffffffffffffffffffffffff1673ffffffffffffffffffffffffffffffffffffffff1681526020016001820160009054906101000a900473ffffffffffffffffffffffffffffffffffffffff1673ffffffffffffffffffffffffffffffffffffffff1673ffffffffffffffffffffffffffffffffffffffff1681526020016002820180548060200260200160405190810160405280929190818152602001828054801561061e57602002820191906000526020600020905b81548152602001906001019080831161060a575b5050505050815260200160038201548152505090505b600073ffffffffffffffffffffffffffffffffffffffff168273ffffffffffffffffffffffffffffffffffffffff16141580156106865750600154816060015184606001516106839190611afe565b11155b1561088a576000816060015184606001516106a19190611afe565b905060646005600083815260200190815260200160002054876106c49190611aa4565b6106ce9190611a73565b600660008573ffffffffffffffffffffffffffffffffffffffff1673ffffffffffffffffffffffffffffffffffffffff168152602001908152602001600020600082825461071c9190611a1d565b9250508190555081602001519250600360008473ffffffffffffffffffffffffffffffffffffffff1673ffffffffffffffffffffffffffffffffffffffff1681526020019081526020016000206040518060800160405290816000820160009054906101000a900473ffffffffffffffffffffffffffffffffffffffff1673ffffffffffffffffffffffffffffffffffffffff1673ffffffffffffffffffffffffffffffffffffffff1681526020016001820160009054906101000a900473ffffffffffffffffffffffffffffffffffffffff1673ffffffffffffffffffffffffffffffffffffffff1673ffffffffffffffffffffffffffffffffffffffff1681526020016002820180548060200260200160405190810160405280929190818152602001828054801561086f57602002820191906000526020600020905b81548152602001906001019080831161085b575b50505050508152602001600382015481525050915050610634565b5050505050565b60405180608001604052803373ffffffffffffffffffffffffffffffffffffffff1681526020018273ffffffffffffffffffffffffffffffffffffffff168152602001600067ffffffffffffffff811115610915577f4e487b7100000000000000000000000000000000000000000000000000000000600052604160045260246000fd5b6040519080825280602002602001820160405280156109435781602001602082028036833780820191505090505b5081526020016000815250600360003373ffffffffffffffffffffffffffffffffffffffff1673ffffffffffffffffffffffffffffffffffffffff16815260200190815260200160002060008201518160000160006101000a81548173ffffffffffffffffffffffffffffffffffffffff021916908373ffffffffffffffffffffffffffffffffffffffff16021790555060208201518160010160006101000a81548173ffffffffffffffffffffffffffffffffffffffff021916908373ffffffffffffffffffffffffffffffffffffffff1602179055506040820151816002019080519060200190610a379291906117d3565b5060608201518160030155905050600073ffffffffffffffffffffffffffffffffffffffff168173ffffffffffffffffffffffffffffffffffffffff161415610bda576007600360003373ffffffffffffffffffffffffffffffffffffffff1673ffffffffffffffffffffffffffffffffffffffff16815260200190815260200160002090806001815401808255809150506001900390600052602060002090600402016000909190919091506000820160009054906101000a900473ffffffffffffffffffffffffffffffffffffffff168160000160006101000a81548173ffffffffffffffffffffffffffffffffffffffff021916908373ffffffffffffffffffffffffffffffffffffffff1602179055506001820160009054906101000a900473ffffffffffffffffffffffffffffffffffffffff168160010160006101000a81548173ffffffffffffffffffffffffffffffffffffffff021916908373ffffffffffffffffffffffffffffffffffffffff1602179055506002820181600201908054610bc8929190611820565b50600382015481600301555050610ca9565b6000600360008373ffffffffffffffffffffffffffffffffffffffff1673ffffffffffffffffffffffffffffffffffffffff168152602001908152602001600020905060018160030154610c2e9190611a1d565b600360003373ffffffffffffffffffffffffffffffffffffffff1673ffffffffffffffffffffffffffffffffffffffff1681526020019081526020016000206003018190555080600201610c8133610cac565b9080600181540180825580915050600190039060005260206000200160009091909190915055505b50565b600060608273ffffffffffffffffffffffffffffffffffffffff16901b60001b9050919050565b6000600360008373ffffffffffffffffffffffffffffffffffffffff1673ffffffffffffffffffffffffffffffffffffffff1681526020019081526020016000206040518060800160405290816000820160009054906101000a900473ffffffffffffffffffffffffffffffffffffffff1673ffffffffffffffffffffffffffffffffffffffff1673ffffffffffffffffffffffffffffffffffffffff1681526020016001820160009054906101000a900473ffffffffffffffffffffffffffffffffffffffff1673ffffffffffffffffffffffffffffffffffffffff1673ffffffffffffffffffffffffffffffffffffffff16815260200160028201805480602002602001604051908101604052809291908181526020018280548015610e1a57602002820191906000526020600020905b815481526020019060010190808311610e06575b505050505081526020016003820154815250509050600081602001519050600073ffffffffffffffffffffffffffffffffffffffff168173ffffffffffffffffffffffffffffffffffffffff161415610e7257600080fd5b6000600360008373ffffffffffffffffffffffffffffffffffffffff1673ffffffffffffffffffffffffffffffffffffffff1681526020019081526020016000206040518060800160405290816000820160009054906101000a900473ffffffffffffffffffffffffffffffffffffffff1673ffffffffffffffffffffffffffffffffffffffff1673ffffffffffffffffffffffffffffffffffffffff1681526020016001820160009054906101000a900473ffffffffffffffffffffffffffffffffffffffff1673ffffffffffffffffffffffffffffffffffffffff1673ffffffffffffffffffffffffffffffffffffffff16815260200160028201805480602002602001604051908101604052809291908181526020018280548015610fb957602002820191906000526020600020905b815481526020019060010190808311610fa5575b5050505050815260200160038201548152505090505b600073ffffffffffffffffffffffffffffffffffffffff168273ffffffffffffffffffffffffffffffffffffffff161415801561102157506002548160600151846060015161101e9190611afe565b11155b156112255760008160600151846060015161103c9190611afe565b9050606460046000838152602001908152602001600020548761105f9190611aa4565b6110699190611a73565b600660008573ffffffffffffffffffffffffffffffffffffffff1673ffffffffffffffffffffffffffffffffffffffff16815260200190815260200160002060008282546110b79190611a1d565b9250508190555081602001519250600360008473ffffffffffffffffffffffffffffffffffffffff1673ffffffffffffffffffffffffffffffffffffffff1681526020019081526020016000206040518060800160405290816000820160009054906101000a900473ffffffffffffffffffffffffffffffffffffffff1673ffffffffffffffffffffffffffffffffffffffff1673ffffffffffffffffffffffffffffffffffffffff1681526020016001820160009054906101000a900473ffffffffffffffffffffffffffffffffffffffff1673ffffffffffffffffffffffffffffffffffffffff1673ffffffffffffffffffffffffffffffffffffffff1681526020016002820180548060200260200160405190810160405280929190818152602001828054801561120a57602002820191906000526020600020905b8154815260200190600101908083116111f6575b50505050508152602001600382015481525050915050610fcf565b5050505050565b60025481565b60066020528060005260406000206000915090505481565b60008054906101000a900473ffffffffffffffffffffffffffffffffffffffff1681565b6000600360008373ffffffffffffffffffffffffffffffffffffffff1673ffffffffffffffffffffffffffffffffffffffff1681526020019081526020016000206040518060800160405290816000820160009054906101000a900473ffffffffffffffffffffffffffffffffffffffff1673ffffffffffffffffffffffffffffffffffffffff1673ffffffffffffffffffffffffffffffffffffffff1681526020016001820160009054906101000a900473ffffffffffffffffffffffffffffffffffffffff1673ffffffffffffffffffffffffffffffffffffffff1673ffffffffffffffffffffffffffffffffffffffff168152602001600282018054806020026020016040519081016040528092919081815260200182805480156113b557602002820191906000526020600020905b8154815260200190600101908083116113a1575b5050505050815260200160038201548152505090503373ffffffffffffffffffffffffffffffffffffffff16816020015173ffffffffffffffffffffffffffffffffffffffff161461140657600080fd5b600360008373ffffffffffffffffffffffffffffffffffffffff1673ffffffffffffffffffffffffffffffffffffffff168152602001908152602001600020600080820160006101000a81549073ffffffffffffffffffffffffffffffffffffffff02191690556001820160006101000a81549073ffffffffffffffffffffffffffffffffffffffff02191690556002820160006114a49190611872565b60038201600090555050600060036000836020015173ffffffffffffffffffffffffffffffffffffffff1673ffffffffffffffffffffffffffffffffffffffff168152602001908152602001600020905060005b81600201805490508110156115bd5761151084610cac565b82600201828154811061154c577f4e487b7100000000000000000000000000000000000000000000000000000000600052603260045260246000fd5b906000526020600020015414156115ac57816002018181548110611599577f4e487b7100000000000000000000000000000000000000000000000000000000600052603260045260246000fd5b90600052602060002001600090556115bd565b806115b690611b78565b90506114f8565b50505050565b60008054906101000a900473ffffffffffffffffffffffffffffffffffffffff1673ffffffffffffffffffffffffffffffffffffffff163373ffffffffffffffffffffffffffffffffffffffff161461161b57600080fd5b806005600060016000815461162f90611b78565b91905081905581526020019081526020016000208190555050565b60036020528060005260406000206000915090508060000160009054906101000a900473ffffffffffffffffffffffffffffffffffffffff16908060010160009054906101000a900473ffffffffffffffffffffffffffffffffffffffff16908060030154905083565b60008054906101000a900473ffffffffffffffffffffffffffffffffffffffff1673ffffffffffffffffffffffffffffffffffffffff163373ffffffffffffffffffffffffffffffffffffffff161461170c57600080fd5b806004600060026000815461172090611b78565b91905081905581526020019081526020016000208190555050565b60015481565b60056020528060005260406000206000915090505481565b6007818154811061176957600080fd5b90600052602060002090600402016000915090508060000160009054906101000a900473ffffffffffffffffffffffffffffffffffffffff16908060010160009054906101000a900473ffffffffffffffffffffffffffffffffffffffff16908060030154905083565b82805482825590600052602060002090810192821561180f579160200282015b8281111561180e5782518255916020019190600101906117f3565b5b50905061181c9190611893565b5090565b8280548282559060005260206000209081019282156118615760005260206000209182015b82811115611860578254825591600101919060010190611845565b5b50905061186e9190611893565b5090565b50805460008255906000526020600020908101906118909190611893565b50565b5b808211156118ac576000816000905550600101611894565b5090565b6000813590506118bf81611c1f565b92915050565b6000813590506118d481611c36565b92915050565b6000602082840312156118ec57600080fd5b60006118fa848285016118b0565b91505092915050565b60006020828403121561191557600080fd5b6000611923848285016118c5565b91505092915050565b6000806040838503121561193f57600080fd5b600061194d858286016118c5565b925050602061195e858286016118b0565b9150509250929050565b61197181611b32565b82525050565b61198081611b44565b82525050565b61198f81611b6e565b82525050565b60006020820190506119aa6000830184611968565b92915050565b60006060820190506119c56000830186611968565b6119d26020830185611968565b6119df6040830184611986565b949350505050565b60006020820190506119fc6000830184611977565b92915050565b6000602082019050611a176000830184611986565b92915050565b6000611a2882611b6e565b9150611a3383611b6e565b9250827fffffffffffffffffffffffffffffffffffffffffffffffffffffffffffffffff03821115611a6857611a67611bc1565b5b828201905092915050565b6000611a7e82611b6e565b9150611a8983611b6e565b925082611a9957611a98611bf0565b5b828204905092915050565b6000611aaf82611b6e565b9150611aba83611b6e565b9250817fffffffffffffffffffffffffffffffffffffffffffffffffffffffffffffffff0483118215151615611af357611af2611bc1565b5b828202905092915050565b6000611b0982611b6e565b9150611b1483611b6e565b925082821015611b2757611b26611bc1565b5b828203905092915050565b6000611b3d82611b4e565b9050919050565b6000819050919050565b600073ffffffffffffffffffffffffffffffffffffffff82169050919050565b6000819050919050565b6000611b8382611b6e565b91507fffffffffffffffffffffffffffffffffffffffffffffffffffffffffffffffff821415611bb657611bb5611bc1565b5b600182019050919050565b7f4e487b7100000000000000000000000000000000000000000000000000000000600052601160045260246000fd5b7f4e487b7100000000000000000000000000000000000000000000000000000000600052601260045260246000fd5b611c2881611b32565b8114611c3357600080fd5b50565b611c3f81611b6e565b8114611c4a57600080fd5b5056fea2646970667358221220c9da874e1330bd6eb9f0bbbe7c0529fe9ea58bbe831cc6270dacf4189a16a48a64736f6c63430008000033",
  "immutableReferences": {},
  "source": "// SPDX-License-Identifier: MIT\r\n\r\npragma solidity ^0.8.0;\r\n\r\ncontract Referral{\r\n    address public owner;\r\n    \r\n    struct Node {\r\n        address addr;\r\n        address parent;\r\n        bytes32[] nodes;\r\n        uint level;\r\n    }\r\n    \r\n    uint public depositLevels;\r\n    uint public interestLevels;\r\n    \r\n    mapping(address => Node) public users;\r\n    \r\n    mapping(uint => uint) public interestCommission;\r\n    mapping(uint => uint) public depositCommission;\r\n    \r\n    mapping(address => uint) public commissions;\r\n    \r\n    Node[] public topLevels;\r\n    \r\n    constructor() {\r\n        owner = msg.sender;\r\n        depositLevels = 0;\r\n        interestLevels = 0;\r\n    }\r\n    \r\n    modifier onlyOwner() {\r\n        require(msg.sender == owner);\r\n        _;\r\n    }\r\n    \r\n    function toBytes(address _addr) public pure returns(bytes32){\r\n        return bytes32(uint256(uint160(_addr)) << 96);\r\n    }\r\n    \r\n    function addInterestLevel(uint _commission) public onlyOwner{\r\n        interestCommission[++interestLevels] = _commission;\r\n    }\r\n    \r\n    function addDepositLevel(uint _commission) public onlyOwner{\r\n        depositCommission[++depositLevels] = _commission;\r\n    }\r\n    \r\n    function addUser(address _parent) public {\r\n        \r\n        users[msg.sender]=Node({\r\n            addr: msg.sender,\r\n            parent: _parent,\r\n            nodes: new bytes32[](0),\r\n            level: 0\r\n        });\r\n        if(_parent == address(0)){\r\n            topLevels.push(users[msg.sender]);\r\n        }else{\r\n            Node storage parentNode = users[_parent];\r\n            users[msg.sender].level = parentNode.level+1;\r\n            parentNode.nodes.push(toBytes(msg.sender));\r\n        }\r\n    } \r\n    \r\n    function distributeInterestCommissions(uint _interest, address _addr) public {\r\n        Node memory node = users[_addr];\r\n        address parent = node.parent;\r\n        require(parent != address(0));\r\n        Node memory parentNode = users[parent];\r\n        while(parent != address(0) && node.level - parentNode.level <= interestLevels){\r\n            uint currLevel = node.level - parentNode.level;\r\n            commissions[parent] += uint(_interest*interestCommission[currLevel]/uint(100));\r\n            parent = parentNode.parent;\r\n            parentNode = users[parent];\r\n        }\r\n        \r\n    }\r\n    \r\n    function distributeDepositCommissions(uint _deposit, address _addr) public {\r\n        Node memory node = users[_addr];\r\n        address parent = node.parent;\r\n        require(parent != address(0));\r\n        Node memory parentNode = users[parent];\r\n        while(parent != address(0) && node.level - parentNode.level <= depositLevels){\r\n            uint currLevel = node.level - parentNode.level;\r\n            commissions[parent] += uint(_deposit*depositCommission[currLevel]/uint(100));\r\n            parent = parentNode.parent;\r\n            parentNode = users[parent];\r\n        }\r\n    }\r\n    \r\n    \r\n    function removeUser(address _addr) public {\r\n        Node memory node = users[_addr];\r\n        require(node.parent == msg.sender);\r\n        delete users[_addr];\r\n        Node storage parentNode = users[node.parent];\r\n        for(uint i=0; i < parentNode.nodes.length; ++i){\r\n            if(parentNode.nodes[i] == toBytes(_addr)){\r\n                delete parentNode.nodes[i];\r\n                break;\r\n            }\r\n        }\r\n        //TODO\r\n    }\r\n}",
  "sourcePath": "C:\\Users\\lenovo\\OneDrive\\Desktop\\proj\\contracts\\Referral.sol",
  "compiler": {
    "name": "solc",
    "version": "0.8.0+commit.c7dfd78e.Emscripten.clang"
  },
  "schemaVersion": "3.4.1",
  "updatedAt": "2021-08-14T18:56:49.731Z",
  "devdoc": {
    "kind": "dev",
    "methods": {},
    "version": 1
  },
  "userdoc": {
    "kind": "user",
    "methods": {},
    "version": 1
  }
}