{
  "contractName": "Referral",
  "abi": [
    {
      "inputs": [],
      "stateMutability": "nonpayable",
      "type": "constructor"
    },
    {
      "inputs": [
        {
          "internalType": "address",
          "name": "",
          "type": "address"
        }
      ],
      "name": "commissions",
      "outputs": [
        {
          "internalType": "uint256",
          "name": "",
          "type": "uint256"
        }
      ],
      "stateMutability": "view",
      "type": "function"
    },
    {
      "inputs": [
        {
          "internalType": "uint256",
          "name": "",
          "type": "uint256"
        }
      ],
      "name": "depositCommission",
      "outputs": [
        {
          "internalType": "uint256",
          "name": "",
          "type": "uint256"
        }
      ],
      "stateMutability": "view",
      "type": "function"
    },
    {
      "inputs": [],
      "name": "depositLevels",
      "outputs": [
        {
          "internalType": "uint256",
          "name": "",
          "type": "uint256"
        }
      ],
      "stateMutability": "view",
      "type": "function"
    },
    {
      "inputs": [
        {
          "internalType": "uint256",
          "name": "",
          "type": "uint256"
        }
      ],
      "name": "interestCommission",
      "outputs": [
        {
          "internalType": "uint256",
          "name": "",
          "type": "uint256"
        }
      ],
      "stateMutability": "view",
      "type": "function"
    },
    {
      "inputs": [],
      "name": "interestLevels",
      "outputs": [
        {
          "internalType": "uint256",
          "name": "",
          "type": "uint256"
        }
      ],
      "stateMutability": "view",
      "type": "function"
    },
    {
      "inputs": [],
      "name": "owner",
      "outputs": [
        {
          "internalType": "address",
          "name": "",
          "type": "address"
        }
      ],
      "stateMutability": "view",
      "type": "function"
    },
    {
      "inputs": [
        {
          "internalType": "uint256",
          "name": "",
          "type": "uint256"
        }
      ],
      "name": "topLevels",
      "outputs": [
        {
          "internalType": "address",
          "name": "addr",
          "type": "address"
        },
        {
          "internalType": "address",
          "name": "parent",
          "type": "address"
        },
        {
          "internalType": "uint256",
          "name": "level",
          "type": "uint256"
        }
      ],
      "stateMutability": "view",
      "type": "function"
    },
    {
      "inputs": [
        {
          "internalType": "address",
          "name": "",
          "type": "address"
        }
      ],
      "name": "users",
      "outputs": [
        {
          "internalType": "address",
          "name": "addr",
          "type": "address"
        },
        {
          "internalType": "address",
          "name": "parent",
          "type": "address"
        },
        {
          "internalType": "uint256",
          "name": "level",
          "type": "uint256"
        }
      ],
      "stateMutability": "view",
      "type": "function"
    },
    {
      "inputs": [
        {
          "internalType": "address",
          "name": "_addr",
          "type": "address"
        }
      ],
      "name": "toBytes",
      "outputs": [
        {
          "internalType": "bytes32",
          "name": "",
          "type": "bytes32"
        }
      ],
      "stateMutability": "pure",
      "type": "function"
    },
    {
      "inputs": [
        {
          "internalType": "uint256",
          "name": "_commission",
          "type": "uint256"
        }
      ],
      "name": "addInterestLevel",
      "outputs": [],
      "stateMutability": "nonpayable",
      "type": "function"
    },
    {
      "inputs": [
        {
          "internalType": "uint256",
          "name": "_commission",
          "type": "uint256"
        }
      ],
      "name": "addDepositLevel",
      "outputs": [],
      "stateMutability": "nonpayable",
      "type": "function"
    },
    {
      "inputs": [
        {
          "internalType": "address",
          "name": "_parent",
          "type": "address"
        }
      ],
      "name": "addUser",
      "outputs": [],
      "stateMutability": "nonpayable",
      "type": "function"
    },
    {
      "inputs": [
        {
          "internalType": "uint256",
          "name": "_interest",
          "type": "uint256"
        },
        {
          "internalType": "address",
          "name": "_addr",
          "type": "address"
        }
      ],
      "name": "distributeInterestCommissions",
      "outputs": [],
      "stateMutability": "nonpayable",
      "type": "function"
    },
    {
      "inputs": [
        {
          "internalType": "uint256",
          "name": "_deposit",
          "type": "uint256"
        },
        {
          "internalType": "address",
          "name": "_addr",
          "type": "address"
        }
      ],
      "name": "distributeDepositCommissions",
      "outputs": [],
      "stateMutability": "nonpayable",
      "type": "function"
    },
    {
      "inputs": [
        {
          "internalType": "address",
          "name": "_addr",
          "type": "address"
        }
      ],
      "name": "removeUser",
      "outputs": [],
      "stateMutability": "nonpayable",
      "type": "function"
    }
  ],
  "bytecode": "0x608060405234801561001057600080fd5b50336000806101000a81548173ffffffffffffffffffffffffffffffffffffffff021916908373ffffffffffffffffffffffffffffffffffffffff16021790555060006001819055506000600281905550611c79806100706000396000f3fe608060405234801561001057600080fd5b50600436106100f55760003560e01c80638da5cb5b11610097578063bff774af11610066578063bff774af14610284578063d5faafbe146102a0578063d606f550146102be578063dc9f3a18146102ee576100f5565b80638da5cb5b146101fc578063985751881461021a5780639d6c899014610236578063a87430ba14610252576100f5565b8063593b79fe116100d3578063593b79fe14610162578063593cec51146101925780635f11f468146101ae5780637b05afb5146101cc576100f5565b80630e79bb02146100fa5780632410d6541461012a578063421b2d8b14610146575b600080fd5b610114600480360381019061010f91906118f9565b610320565b60405161012191906119f8565b60405180910390f35b610144600480360381019061013f9190611922565b610338565b005b610160600480360381019061015b91906118d0565b61088c565b005b61017c600480360381019061017791906118d0565b610ca7565b60405161018991906119dd565b60405180910390f35b6101ac60048036038101906101a79190611922565b610cce565b005b6101b6611222565b6040516101c391906119f8565b60405180910390f35b6101e660048036038101906101e191906118d0565b611228565b6040516101f391906119f8565b60405180910390f35b610204611240565b604051610211919061198b565b60405180910390f35b610234600480360381019061022f91906118d0565b611264565b005b610250600480360381019061024b91906118f9565b6115b9565b005b61026c600480360381019061026791906118d0565b611640565b60405161027b939291906119a6565b60405180910390f35b61029e600480360381019061029991906118f9565b6116aa565b005b6102a8611731565b6040516102b591906119f8565b60405180910390f35b6102d860048036038101906102d391906118f9565b611737565b6040516102e591906119f8565b60405180910390f35b610308600480360381019061030391906118f9565b61174f565b604051610317939291906119a6565b60405180910390f35b60046020528060005260406000206000915090505481565b6000600360008373ffffffffffffffffffffffffffffffffffffffff1673ffffffffffffffffffffffffffffffffffffffff1681526020019081526020016000206040518060800160405290816000820160009054906101000a900473ffffffffffffffffffffffffffffffffffffffff1673ffffffffffffffffffffffffffffffffffffffff1673ffffffffffffffffffffffffffffffffffffffff1681526020016001820160009054906101000a900473ffffffffffffffffffffffffffffffffffffffff1673ffffffffffffffffffffffffffffffffffffffff1673ffffffffffffffffffffffffffffffffffffffff1681526020016002820180548060200260200160405190810160405280929190818152602001828054801561047f57602002820191906000526020600020905b81548152602001906001019080831161046b575b505050505081526020016003820154815250509050600081602001519050600073ffffffffffffffffffffffffffffffffffffffff168173ffffffffffffffffffffffffffffffffffffffff1614610886576000600360008373ffffffffffffffffffffffffffffffffffffffff1673ffffffffffffffffffffffffffffffffffffffff1681526020019081526020016000206040518060800160405290816000820160009054906101000a900473ffffffffffffffffffffffffffffffffffffffff1673ffffffffffffffffffffffffffffffffffffffff1673ffffffffffffffffffffffffffffffffffffffff1681526020016001820160009054906101000a900473ffffffffffffffffffffffffffffffffffffffff1673ffffffffffffffffffffffffffffffffffffffff1673ffffffffffffffffffffffffffffffffffffffff1681526020016002820180548060200260200160405190810160405280929190818152602001828054801561061857602002820191906000526020600020905b815481526020019060010190808311610604575b5050505050815260200160038201548152505090505b600073ffffffffffffffffffffffffffffffffffffffff168273ffffffffffffffffffffffffffffffffffffffff161415801561068057506001548160600151846060015161067d9190611af4565b11155b156108845760008160600151846060015161069b9190611af4565b905060646005600083815260200190815260200160002054876106be9190611a9a565b6106c89190611a69565b600660008573ffffffffffffffffffffffffffffffffffffffff1673ffffffffffffffffffffffffffffffffffffffff16815260200190815260200160002060008282546107169190611a13565b9250508190555081602001519250600360008473ffffffffffffffffffffffffffffffffffffffff1673ffffffffffffffffffffffffffffffffffffffff1681526020019081526020016000206040518060800160405290816000820160009054906101000a900473ffffffffffffffffffffffffffffffffffffffff1673ffffffffffffffffffffffffffffffffffffffff1673ffffffffffffffffffffffffffffffffffffffff1681526020016001820160009054906101000a900473ffffffffffffffffffffffffffffffffffffffff1673ffffffffffffffffffffffffffffffffffffffff1673ffffffffffffffffffffffffffffffffffffffff1681526020016002820180548060200260200160405190810160405280929190818152602001828054801561086957602002820191906000526020600020905b815481526020019060010190808311610855575b5050505050815260200160038201548152505091505061062e565b505b50505050565b60405180608001604052803373ffffffffffffffffffffffffffffffffffffffff1681526020018273ffffffffffffffffffffffffffffffffffffffff168152602001600067ffffffffffffffff811115610910577f4e487b7100000000000000000000000000000000000000000000000000000000600052604160045260246000fd5b60405190808252806020026020018201604052801561093e5781602001602082028036833780820191505090505b5081526020016000815250600360003373ffffffffffffffffffffffffffffffffffffffff1673ffffffffffffffffffffffffffffffffffffffff16815260200190815260200160002060008201518160000160006101000a81548173ffffffffffffffffffffffffffffffffffffffff021916908373ffffffffffffffffffffffffffffffffffffffff16021790555060208201518160010160006101000a81548173ffffffffffffffffffffffffffffffffffffffff021916908373ffffffffffffffffffffffffffffffffffffffff1602179055506040820151816002019080519060200190610a329291906117c9565b5060608201518160030155905050600073ffffffffffffffffffffffffffffffffffffffff168173ffffffffffffffffffffffffffffffffffffffff161415610bd5576007600360003373ffffffffffffffffffffffffffffffffffffffff1673ffffffffffffffffffffffffffffffffffffffff16815260200190815260200160002090806001815401808255809150506001900390600052602060002090600402016000909190919091506000820160009054906101000a900473ffffffffffffffffffffffffffffffffffffffff168160000160006101000a81548173ffffffffffffffffffffffffffffffffffffffff021916908373ffffffffffffffffffffffffffffffffffffffff1602179055506001820160009054906101000a900473ffffffffffffffffffffffffffffffffffffffff168160010160006101000a81548173ffffffffffffffffffffffffffffffffffffffff021916908373ffffffffffffffffffffffffffffffffffffffff1602179055506002820181600201908054610bc3929190611816565b50600382015481600301555050610ca4565b6000600360008373ffffffffffffffffffffffffffffffffffffffff1673ffffffffffffffffffffffffffffffffffffffff168152602001908152602001600020905060018160030154610c299190611a13565b600360003373ffffffffffffffffffffffffffffffffffffffff1673ffffffffffffffffffffffffffffffffffffffff1681526020019081526020016000206003018190555080600201610c7c33610ca7565b9080600181540180825580915050600190039060005260206000200160009091909190915055505b50565b600060608273ffffffffffffffffffffffffffffffffffffffff16901b60001b9050919050565b6000600360008373ffffffffffffffffffffffffffffffffffffffff1673ffffffffffffffffffffffffffffffffffffffff1681526020019081526020016000206040518060800160405290816000820160009054906101000a900473ffffffffffffffffffffffffffffffffffffffff1673ffffffffffffffffffffffffffffffffffffffff1673ffffffffffffffffffffffffffffffffffffffff1681526020016001820160009054906101000a900473ffffffffffffffffffffffffffffffffffffffff1673ffffffffffffffffffffffffffffffffffffffff1673ffffffffffffffffffffffffffffffffffffffff16815260200160028201805480602002602001604051908101604052809291908181526020018280548015610e1557602002820191906000526020600020905b815481526020019060010190808311610e01575b505050505081526020016003820154815250509050600081602001519050600073ffffffffffffffffffffffffffffffffffffffff168173ffffffffffffffffffffffffffffffffffffffff161461121c576000600360008373ffffffffffffffffffffffffffffffffffffffff1673ffffffffffffffffffffffffffffffffffffffff1681526020019081526020016000206040518060800160405290816000820160009054906101000a900473ffffffffffffffffffffffffffffffffffffffff1673ffffffffffffffffffffffffffffffffffffffff1673ffffffffffffffffffffffffffffffffffffffff1681526020016001820160009054906101000a900473ffffffffffffffffffffffffffffffffffffffff1673ffffffffffffffffffffffffffffffffffffffff1673ffffffffffffffffffffffffffffffffffffffff16815260200160028201805480602002602001604051908101604052809291908181526020018280548015610fae57602002820191906000526020600020905b815481526020019060010190808311610f9a575b5050505050815260200160038201548152505090505b600073ffffffffffffffffffffffffffffffffffffffff168273ffffffffffffffffffffffffffffffffffffffff16141580156110165750600254816060015184606001516110139190611af4565b11155b1561121a576000816060015184606001516110319190611af4565b905060646004600083815260200190815260200160002054876110549190611a9a565b61105e9190611a69565b600660008573ffffffffffffffffffffffffffffffffffffffff1673ffffffffffffffffffffffffffffffffffffffff16815260200190815260200160002060008282546110ac9190611a13565b9250508190555081602001519250600360008473ffffffffffffffffffffffffffffffffffffffff1673ffffffffffffffffffffffffffffffffffffffff1681526020019081526020016000206040518060800160405290816000820160009054906101000a900473ffffffffffffffffffffffffffffffffffffffff1673ffffffffffffffffffffffffffffffffffffffff1673ffffffffffffffffffffffffffffffffffffffff1681526020016001820160009054906101000a900473ffffffffffffffffffffffffffffffffffffffff1673ffffffffffffffffffffffffffffffffffffffff1673ffffffffffffffffffffffffffffffffffffffff168152602001600282018054806020026020016040519081016040528092919081815260200182805480156111ff57602002820191906000526020600020905b8154815260200190600101908083116111eb575b50505050508152602001600382015481525050915050610fc4565b505b50505050565b60025481565b60066020528060005260406000206000915090505481565b60008054906101000a900473ffffffffffffffffffffffffffffffffffffffff1681565b6000600360008373ffffffffffffffffffffffffffffffffffffffff1673ffffffffffffffffffffffffffffffffffffffff1681526020019081526020016000206040518060800160405290816000820160009054906101000a900473ffffffffffffffffffffffffffffffffffffffff1673ffffffffffffffffffffffffffffffffffffffff1673ffffffffffffffffffffffffffffffffffffffff1681526020016001820160009054906101000a900473ffffffffffffffffffffffffffffffffffffffff1673ffffffffffffffffffffffffffffffffffffffff1673ffffffffffffffffffffffffffffffffffffffff168152602001600282018054806020026020016040519081016040528092919081815260200182805480156113ab57602002820191906000526020600020905b815481526020019060010190808311611397575b5050505050815260200160038201548152505090503373ffffffffffffffffffffffffffffffffffffffff16816020015173ffffffffffffffffffffffffffffffffffffffff16146113fc57600080fd5b600360008373ffffffffffffffffffffffffffffffffffffffff1673ffffffffffffffffffffffffffffffffffffffff168152602001908152602001600020600080820160006101000a81549073ffffffffffffffffffffffffffffffffffffffff02191690556001820160006101000a81549073ffffffffffffffffffffffffffffffffffffffff021916905560028201600061149a9190611868565b60038201600090555050600060036000836020015173ffffffffffffffffffffffffffffffffffffffff1673ffffffffffffffffffffffffffffffffffffffff168152602001908152602001600020905060005b81600201805490508110156115b35761150684610ca7565b826002018281548110611542577f4e487b7100000000000000000000000000000000000000000000000000000000600052603260045260246000fd5b906000526020600020015414156115a25781600201818154811061158f577f4e487b7100000000000000000000000000000000000000000000000000000000600052603260045260246000fd5b90600052602060002001600090556115b3565b806115ac90611b6e565b90506114ee565b50505050565b60008054906101000a900473ffffffffffffffffffffffffffffffffffffffff1673ffffffffffffffffffffffffffffffffffffffff163373ffffffffffffffffffffffffffffffffffffffff161461161157600080fd5b806005600060016000815461162590611b6e565b91905081905581526020019081526020016000208190555050565b60036020528060005260406000206000915090508060000160009054906101000a900473ffffffffffffffffffffffffffffffffffffffff16908060010160009054906101000a900473ffffffffffffffffffffffffffffffffffffffff16908060030154905083565b60008054906101000a900473ffffffffffffffffffffffffffffffffffffffff1673ffffffffffffffffffffffffffffffffffffffff163373ffffffffffffffffffffffffffffffffffffffff161461170257600080fd5b806004600060026000815461171690611b6e565b91905081905581526020019081526020016000208190555050565b60015481565b60056020528060005260406000206000915090505481565b6007818154811061175f57600080fd5b90600052602060002090600402016000915090508060000160009054906101000a900473ffffffffffffffffffffffffffffffffffffffff16908060010160009054906101000a900473ffffffffffffffffffffffffffffffffffffffff16908060030154905083565b828054828255906000526020600020908101928215611805579160200282015b828111156118045782518255916020019190600101906117e9565b5b5090506118129190611889565b5090565b8280548282559060005260206000209081019282156118575760005260206000209182015b8281111561185657825482559160010191906001019061183b565b5b5090506118649190611889565b5090565b50805460008255906000526020600020908101906118869190611889565b50565b5b808211156118a257600081600090555060010161188a565b5090565b6000813590506118b581611c15565b92915050565b6000813590506118ca81611c2c565b92915050565b6000602082840312156118e257600080fd5b60006118f0848285016118a6565b91505092915050565b60006020828403121561190b57600080fd5b6000611919848285016118bb565b91505092915050565b6000806040838503121561193557600080fd5b6000611943858286016118bb565b9250506020611954858286016118a6565b9150509250929050565b61196781611b28565b82525050565b61197681611b3a565b82525050565b61198581611b64565b82525050565b60006020820190506119a0600083018461195e565b92915050565b60006060820190506119bb600083018661195e565b6119c8602083018561195e565b6119d5604083018461197c565b949350505050565b60006020820190506119f2600083018461196d565b92915050565b6000602082019050611a0d600083018461197c565b92915050565b6000611a1e82611b64565b9150611a2983611b64565b9250827fffffffffffffffffffffffffffffffffffffffffffffffffffffffffffffffff03821115611a5e57611a5d611bb7565b5b828201905092915050565b6000611a7482611b64565b9150611a7f83611b64565b925082611a8f57611a8e611be6565b5b828204905092915050565b6000611aa582611b64565b9150611ab083611b64565b9250817fffffffffffffffffffffffffffffffffffffffffffffffffffffffffffffffff0483118215151615611ae957611ae8611bb7565b5b828202905092915050565b6000611aff82611b64565b9150611b0a83611b64565b925082821015611b1d57611b1c611bb7565b5b828203905092915050565b6000611b3382611b44565b9050919050565b6000819050919050565b600073ffffffffffffffffffffffffffffffffffffffff82169050919050565b6000819050919050565b6000611b7982611b64565b91507fffffffffffffffffffffffffffffffffffffffffffffffffffffffffffffffff821415611bac57611bab611bb7565b5b600182019050919050565b7f4e487b7100000000000000000000000000000000000000000000000000000000600052601160045260246000fd5b7f4e487b7100000000000000000000000000000000000000000000000000000000600052601260045260246000fd5b611c1e81611b28565b8114611c2957600080fd5b50565b611c3581611b64565b8114611c4057600080fd5b5056fea2646970667358221220122d9650d9bf89bddb325cbf3bedeb665ec2299f5f09e2acbc6152960345150464736f6c63430008000033",
  "immutableReferences": {},
  "source": "// SPDX-License-Identifier: MIT\r\n\r\npragma solidity ^0.8.0;\r\n\r\ncontract Referral{\r\n    address public owner;\r\n    \r\n    struct Node {\r\n        address addr;\r\n        address parent;\r\n        bytes32[] nodes;\r\n        uint level;\r\n    }\r\n    \r\n    uint public depositLevels;\r\n    uint public interestLevels;\r\n    \r\n    mapping(address => Node) public users;\r\n    \r\n    mapping(uint => uint) public interestCommission;\r\n    mapping(uint => uint) public depositCommission;\r\n    \r\n    mapping(address => uint) public commissions;\r\n    \r\n    Node[] public topLevels;\r\n    \r\n    constructor() {\r\n        owner = msg.sender;\r\n        depositLevels = 0;\r\n        interestLevels = 0;\r\n    }\r\n    \r\n    modifier onlyOwner() {\r\n        require(msg.sender == owner);\r\n        _;\r\n    }\r\n    \r\n    function toBytes(address _addr) public pure returns(bytes32){\r\n        return bytes32(uint256(uint160(_addr)) << 96);\r\n    }\r\n    \r\n    function addInterestLevel(uint _commission) public onlyOwner{\r\n        interestCommission[++interestLevels] = _commission;\r\n    }\r\n    \r\n    function addDepositLevel(uint _commission) public onlyOwner{\r\n        depositCommission[++depositLevels] = _commission;\r\n    }\r\n    \r\n    function addUser(address _parent) public {\r\n        \r\n        users[msg.sender]=Node({\r\n            addr: msg.sender,\r\n            parent: _parent,\r\n            nodes: new bytes32[](0),\r\n            level: 0\r\n        });\r\n        if(_parent == address(0)){\r\n            topLevels.push(users[msg.sender]);\r\n        }else{\r\n            Node storage parentNode = users[_parent];\r\n            users[msg.sender].level = parentNode.level+1;\r\n            parentNode.nodes.push(toBytes(msg.sender));\r\n        }\r\n    } \r\n    \r\n    function distributeInterestCommissions(uint _interest, address _addr) public {\r\n        Node memory node = users[_addr];\r\n        address parent = node.parent;\r\n        if(parent != address(0)){\r\n            Node memory parentNode = users[parent];\r\n            while(parent != address(0) && node.level - parentNode.level <= interestLevels){\r\n                uint currLevel = node.level - parentNode.level;\r\n                commissions[parent] += uint(_interest*interestCommission[currLevel]/uint(100));\r\n                parent = parentNode.parent;\r\n                parentNode = users[parent];\r\n            }\r\n        }\r\n    }\r\n    \r\n    function distributeDepositCommissions(uint _deposit, address _addr) public {\r\n        Node memory node = users[_addr];\r\n        address parent = node.parent;\r\n        if(parent != address(0)){\r\n            Node memory parentNode = users[parent];\r\n            while(parent != address(0) && node.level - parentNode.level <= depositLevels){\r\n                uint currLevel = node.level - parentNode.level;\r\n                commissions[parent] += uint(_deposit*depositCommission[currLevel]/uint(100));\r\n                parent = parentNode.parent;\r\n                parentNode = users[parent];\r\n            }\r\n        }\r\n    }\r\n    \r\n    \r\n    function removeUser(address _addr) public {\r\n        Node memory node = users[_addr];\r\n        require(node.parent == msg.sender);\r\n        delete users[_addr];\r\n        Node storage parentNode = users[node.parent];\r\n        for(uint i=0; i < parentNode.nodes.length; ++i){\r\n            if(parentNode.nodes[i] == toBytes(_addr)){\r\n                delete parentNode.nodes[i];\r\n                break;\r\n            }\r\n        }\r\n        //TODO\r\n    }\r\n}",
  "sourcePath": "C:\\Users\\HP\\Desktop\\NaboStaking\\contracts\\Referral.sol",
  "compiler": {
    "name": "solc",
    "version": "0.8.0+commit.c7dfd78e.Emscripten.clang"
  },
  "schemaVersion": "3.4.2",
  "updatedAt": "2021-08-15T18:22:29.850Z",
  "devdoc": {
    "kind": "dev",
    "methods": {},
    "version": 1
  },
  "userdoc": {
    "kind": "user",
    "methods": {},
    "version": 1
  }
}