{
  "contractName": "Staking",
  "abi": [
    {
      "inputs": [
        {
          "internalType": "contract LivToken",
          "name": "_livToken",
          "type": "address"
        }
      ],
      "stateMutability": "nonpayable",
      "type": "constructor"
    },
    {
      "inputs": [
        {
          "internalType": "uint256",
          "name": "_commission",
          "type": "uint256"
        }
      ],
      "name": "addDepositLevel",
      "outputs": [],
      "stateMutability": "nonpayable",
      "type": "function"
    },
    {
      "inputs": [
        {
          "internalType": "uint256",
          "name": "_commission",
          "type": "uint256"
        }
      ],
      "name": "addInterestLevel",
      "outputs": [],
      "stateMutability": "nonpayable",
      "type": "function"
    },
    {
      "inputs": [
        {
          "internalType": "address",
          "name": "_parent",
          "type": "address"
        }
      ],
      "name": "addUser",
      "outputs": [],
      "stateMutability": "nonpayable",
      "type": "function"
    },
    {
      "inputs": [
        {
          "internalType": "address",
          "name": "",
          "type": "address"
        }
      ],
      "name": "commissions",
      "outputs": [
        {
          "internalType": "uint256",
          "name": "",
          "type": "uint256"
        }
      ],
      "stateMutability": "view",
      "type": "function"
    },
    {
      "inputs": [
        {
          "internalType": "uint256",
          "name": "",
          "type": "uint256"
        }
      ],
      "name": "depositCommission",
      "outputs": [
        {
          "internalType": "uint256",
          "name": "",
          "type": "uint256"
        }
      ],
      "stateMutability": "view",
      "type": "function"
    },
    {
      "inputs": [],
      "name": "depositLevels",
      "outputs": [
        {
          "internalType": "uint256",
          "name": "",
          "type": "uint256"
        }
      ],
      "stateMutability": "view",
      "type": "function"
    },
    {
      "inputs": [
        {
          "internalType": "address",
          "name": "",
          "type": "address"
        }
      ],
      "name": "depositQueue",
      "outputs": [
        {
          "internalType": "contract Queue",
          "name": "",
          "type": "address"
        }
      ],
      "stateMutability": "view",
      "type": "function"
    },
    {
      "inputs": [
        {
          "internalType": "uint256",
          "name": "_deposit",
          "type": "uint256"
        },
        {
          "internalType": "address",
          "name": "_addr",
          "type": "address"
        }
      ],
      "name": "distributeDepositCommissions",
      "outputs": [],
      "stateMutability": "nonpayable",
      "type": "function"
    },
    {
      "inputs": [
        {
          "internalType": "uint256",
          "name": "_interest",
          "type": "uint256"
        },
        {
          "internalType": "address",
          "name": "_addr",
          "type": "address"
        }
      ],
      "name": "distributeInterestCommissions",
      "outputs": [],
      "stateMutability": "nonpayable",
      "type": "function"
    },
    {
      "inputs": [
        {
          "internalType": "address",
          "name": "",
          "type": "address"
        }
      ],
      "name": "hasStaked",
      "outputs": [
        {
          "internalType": "bool",
          "name": "",
          "type": "bool"
        }
      ],
      "stateMutability": "view",
      "type": "function"
    },
    {
      "inputs": [
        {
          "internalType": "uint256",
          "name": "",
          "type": "uint256"
        }
      ],
      "name": "interestCommission",
      "outputs": [
        {
          "internalType": "uint256",
          "name": "",
          "type": "uint256"
        }
      ],
      "stateMutability": "view",
      "type": "function"
    },
    {
      "inputs": [],
      "name": "interestLevels",
      "outputs": [
        {
          "internalType": "uint256",
          "name": "",
          "type": "uint256"
        }
      ],
      "stateMutability": "view",
      "type": "function"
    },
    {
      "inputs": [
        {
          "internalType": "address",
          "name": "",
          "type": "address"
        }
      ],
      "name": "isStaking",
      "outputs": [
        {
          "internalType": "bool",
          "name": "",
          "type": "bool"
        }
      ],
      "stateMutability": "view",
      "type": "function"
    },
    {
      "inputs": [],
      "name": "livToken",
      "outputs": [
        {
          "internalType": "contract LivToken",
          "name": "",
          "type": "address"
        }
      ],
      "stateMutability": "view",
      "type": "function"
    },
    {
      "inputs": [],
      "name": "owner",
      "outputs": [
        {
          "internalType": "address",
          "name": "",
          "type": "address"
        }
      ],
      "stateMutability": "view",
      "type": "function"
    },
    {
      "inputs": [
        {
          "internalType": "address",
          "name": "_addr",
          "type": "address"
        }
      ],
      "name": "removeUser",
      "outputs": [],
      "stateMutability": "nonpayable",
      "type": "function"
    },
    {
      "inputs": [
        {
          "internalType": "address",
          "name": "",
          "type": "address"
        }
      ],
      "name": "rewards",
      "outputs": [
        {
          "internalType": "uint256",
          "name": "",
          "type": "uint256"
        }
      ],
      "stateMutability": "view",
      "type": "function"
    },
    {
      "inputs": [
        {
          "internalType": "uint256",
          "name": "",
          "type": "uint256"
        }
      ],
      "name": "stakers",
      "outputs": [
        {
          "internalType": "address",
          "name": "",
          "type": "address"
        }
      ],
      "stateMutability": "view",
      "type": "function"
    },
    {
      "inputs": [
        {
          "internalType": "address",
          "name": "",
          "type": "address"
        }
      ],
      "name": "stakingBalance",
      "outputs": [
        {
          "internalType": "uint256",
          "name": "",
          "type": "uint256"
        }
      ],
      "stateMutability": "view",
      "type": "function"
    },
    {
      "inputs": [
        {
          "internalType": "address",
          "name": "_addr",
          "type": "address"
        }
      ],
      "name": "toBytes",
      "outputs": [
        {
          "internalType": "bytes32",
          "name": "",
          "type": "bytes32"
        }
      ],
      "stateMutability": "pure",
      "type": "function"
    },
    {
      "inputs": [
        {
          "internalType": "uint256",
          "name": "",
          "type": "uint256"
        }
      ],
      "name": "topLevels",
      "outputs": [
        {
          "internalType": "address",
          "name": "addr",
          "type": "address"
        },
        {
          "internalType": "address",
          "name": "parent",
          "type": "address"
        },
        {
          "internalType": "uint256",
          "name": "level",
          "type": "uint256"
        }
      ],
      "stateMutability": "view",
      "type": "function"
    },
    {
      "inputs": [
        {
          "internalType": "address",
          "name": "",
          "type": "address"
        }
      ],
      "name": "users",
      "outputs": [
        {
          "internalType": "address",
          "name": "addr",
          "type": "address"
        },
        {
          "internalType": "address",
          "name": "parent",
          "type": "address"
        },
        {
          "internalType": "uint256",
          "name": "level",
          "type": "uint256"
        }
      ],
      "stateMutability": "view",
      "type": "function"
    },
    {
      "inputs": [
        {
          "internalType": "uint256",
          "name": "_amount",
          "type": "uint256"
        }
      ],
      "name": "stakeWithoutParent",
      "outputs": [],
      "stateMutability": "nonpayable",
      "type": "function"
    },
    {
      "inputs": [
        {
          "internalType": "uint256",
          "name": "_amount",
          "type": "uint256"
        },
        {
          "internalType": "address",
          "name": "_parent",
          "type": "address"
        }
      ],
      "name": "stakeTokens",
      "outputs": [],
      "stateMutability": "nonpayable",
      "type": "function"
    },
    {
      "inputs": [
        {
          "internalType": "address",
          "name": "_stakeholder",
          "type": "address"
        }
      ],
      "name": "stakeOf",
      "outputs": [
        {
          "internalType": "uint256",
          "name": "",
          "type": "uint256"
        }
      ],
      "stateMutability": "view",
      "type": "function"
    },
    {
      "inputs": [
        {
          "internalType": "uint256",
          "name": "apy",
          "type": "uint256"
        },
        {
          "internalType": "address",
          "name": "stakeHolder",
          "type": "address"
        }
      ],
      "name": "calculateReward",
      "outputs": [],
      "stateMutability": "nonpayable",
      "type": "function"
    },
    {
      "inputs": [
        {
          "internalType": "address",
          "name": "_stakeholder",
          "type": "address"
        }
      ],
      "name": "rewardOf",
      "outputs": [
        {
          "internalType": "uint256",
          "name": "",
          "type": "uint256"
        }
      ],
      "stateMutability": "view",
      "type": "function"
    },
    {
      "inputs": [],
      "name": "withdrawReward",
      "outputs": [],
      "stateMutability": "nonpayable",
      "type": "function"
    },
    {
      "inputs": [],
      "name": "unstakeTokens",
      "outputs": [],
      "stateMutability": "nonpayable",
      "type": "function"
    }
  ],
  "bytecode": "0x60806040523480156200001157600080fd5b50604051620033e1380380620033e1833981810160405281019062000037919062000126565b336000806101000a81548173ffffffffffffffffffffffffffffffffffffffff021916908373ffffffffffffffffffffffffffffffffffffffff1602179055506000600181905550600060028190555080600860006101000a81548173ffffffffffffffffffffffffffffffffffffffff021916908373ffffffffffffffffffffffffffffffffffffffff160217905550336000806101000a81548173ffffffffffffffffffffffffffffffffffffffff021916908373ffffffffffffffffffffffffffffffffffffffff16021790555050620001b4565b60008151905062000120816200019a565b92915050565b6000602082840312156200013957600080fd5b600062000149848285016200010f565b91505092915050565b60006200015f826200017a565b9050919050565b6000620001738262000152565b9050919050565b600073ffffffffffffffffffffffffffffffffffffffff82169050919050565b620001a58162000166565b8114620001b157600080fd5b50565b61321d80620001c46000396000f3fe608060405234801561001057600080fd5b50600436106101cf5760003560e01c80637b05afb511610104578063bff774af116100a2578063d606f55011610071578063d606f55014610550578063dc9f3a1814610580578063f8675b0a146105b2578063fd5e6dd1146105d0576101cf565b8063bff774af146104dc578063c885bc58146104f8578063c93c8f3414610502578063d5faafbe14610532576101cf565b80639d6c8990116100de5780639d6c899014610468578063a18f07a014610484578063a5ce413b146104a0578063a87430ba146104aa576101cf565b80637b05afb5146103fe5780638da5cb5b1461042e578063985751881461044c576101cf565b806345bc78ab11610171578063593cec511161014b578063593cec51146103645780635f11f468146103805780635f2c881a1461039e5780636f49712b146103ce576101cf565b806345bc78ab146102e85780635740e31914610318578063593b79fe14610334576101cf565b80631d62ebd9116101ad5780631d62ebd9146102505780632410d65414610280578063421b2d8b1461029c57806342623360146102b8576101cf565b80630700037d146101d45780630bea440d146102045780630e79bb0214610220575b600080fd5b6101ee60048036038101906101e99190612c16565b610600565b6040516101fb9190612ef7565b60405180910390f35b61021e60048036038101906102199190612cba565b610618565b005b61023a60048036038101906102359190612c68565b6109e3565b6040516102479190612ef7565b60405180910390f35b61026a60048036038101906102659190612c16565b6109fb565b6040516102779190612ef7565b60405180910390f35b61029a60048036038101906102959190612cba565b610a44565b005b6102b660048036038101906102b19190612c16565b610f9d565b005b6102d260048036038101906102cd9190612c16565b6113b8565b6040516102df9190612ef7565b60405180910390f35b61030260048036038101906102fd9190612c16565b611401565b60405161030f9190612ef7565b60405180910390f35b610332600480360381019061032d9190612c68565b611419565b005b61034e60048036038101906103499190612c16565b611427565b60405161035b9190612e66565b60405180910390f35b61037e60048036038101906103799190612cba565b61144e565b005b6103886119a7565b6040516103959190612ef7565b60405180910390f35b6103b860048036038101906103b39190612c16565b6119ad565b6040516103c59190612e9c565b60405180910390f35b6103e860048036038101906103e39190612c16565b6119e0565b6040516103f59190612e4b565b60405180910390f35b61041860048036038101906104139190612c16565b611a00565b6040516104259190612ef7565b60405180910390f35b610436611a18565b6040516104439190612dd0565b60405180910390f35b61046660048036038101906104619190612c16565b611a3c565b005b610482600480360381019061047d9190612c68565b611d91565b005b61049e60048036038101906104999190612cba565b611e18565b005b6104a861252c565b005b6104c460048036038101906104bf9190612c16565b61270c565b6040516104d393929190612deb565b60405180910390f35b6104f660048036038101906104f19190612c68565b612776565b005b6105006127fd565b005b61051c60048036038101906105179190612c16565b6129c8565b6040516105299190612e4b565b60405180910390f35b61053a6129e8565b6040516105479190612ef7565b60405180910390f35b61056a60048036038101906105659190612c68565b6129ee565b6040516105779190612ef7565b60405180910390f35b61059a60048036038101906105959190612c68565b612a06565b6040516105a993929190612deb565b60405180910390f35b6105ba612a80565b6040516105c79190612e81565b60405180910390f35b6105ea60048036038101906105e59190612c68565b612aa6565b6040516105f79190612dd0565b60405180910390f35b600d6020528060005260406000206000915090505481565b6000821161065b576040517f08c379a000000000000000000000000000000000000000000000000000000000815260040161065290612ed7565b60405180910390fd5b600860009054906101000a900473ffffffffffffffffffffffffffffffffffffffff1673ffffffffffffffffffffffffffffffffffffffff166323b872dd3330856040518463ffffffff1660e01b81526004016106ba93929190612deb565b602060405180830381600087803b1580156106d457600080fd5b505af11580156106e8573d6000803e3d6000fd5b505050506040513d601f19601f8201168201806040525081019061070c9190612c3f565b50600e60003373ffffffffffffffffffffffffffffffffffffffff1673ffffffffffffffffffffffffffffffffffffffff16815260200190815260200160002060009054906101000a900473ffffffffffffffffffffffffffffffffffffffff1673ffffffffffffffffffffffffffffffffffffffff1663982d64d483426040518363ffffffff1660e01b81526004016107a7929190612f12565b600060405180830381600087803b1580156107c157600080fd5b505af11580156107d5573d6000803e3d6000fd5b5050505081600a60003373ffffffffffffffffffffffffffffffffffffffff1673ffffffffffffffffffffffffffffffffffffffff168152602001908152602001600020546108249190612f4c565b600a60003373ffffffffffffffffffffffffffffffffffffffff1673ffffffffffffffffffffffffffffffffffffffff16815260200190815260200160002081905550600b60003373ffffffffffffffffffffffffffffffffffffffff1673ffffffffffffffffffffffffffffffffffffffff16815260200190815260200160002060009054906101000a900460ff1661091c576009339080600181540180825580915050600190039060005260206000200160009091909190916101000a81548173ffffffffffffffffffffffffffffffffffffffff021916908373ffffffffffffffffffffffffffffffffffffffff1602179055505b61092581610f9d565b61092f8233610a44565b6001600c60003373ffffffffffffffffffffffffffffffffffffffff1673ffffffffffffffffffffffffffffffffffffffff16815260200190815260200160002060006101000a81548160ff0219169083151502179055506001600b60003373ffffffffffffffffffffffffffffffffffffffff1673ffffffffffffffffffffffffffffffffffffffff16815260200190815260200160002060006101000a81548160ff0219169083151502179055505050565b60046020528060005260406000206000915090505481565b6000600d60008373ffffffffffffffffffffffffffffffffffffffff1673ffffffffffffffffffffffffffffffffffffffff168152602001908152602001600020549050919050565b6000600360008373ffffffffffffffffffffffffffffffffffffffff1673ffffffffffffffffffffffffffffffffffffffff1681526020019081526020016000206040518060800160405290816000820160009054906101000a900473ffffffffffffffffffffffffffffffffffffffff1673ffffffffffffffffffffffffffffffffffffffff1673ffffffffffffffffffffffffffffffffffffffff1681526020016001820160009054906101000a900473ffffffffffffffffffffffffffffffffffffffff1673ffffffffffffffffffffffffffffffffffffffff1673ffffffffffffffffffffffffffffffffffffffff16815260200160028201805480602002602001604051908101604052809291908181526020018280548015610b8b57602002820191906000526020600020905b815481526020019060010190808311610b77575b505050505081526020016003820154815250509050600081602001519050600073ffffffffffffffffffffffffffffffffffffffff168173ffffffffffffffffffffffffffffffffffffffff161415610be357600080fd5b6000600360008373ffffffffffffffffffffffffffffffffffffffff1673ffffffffffffffffffffffffffffffffffffffff1681526020019081526020016000206040518060800160405290816000820160009054906101000a900473ffffffffffffffffffffffffffffffffffffffff1673ffffffffffffffffffffffffffffffffffffffff1673ffffffffffffffffffffffffffffffffffffffff1681526020016001820160009054906101000a900473ffffffffffffffffffffffffffffffffffffffff1673ffffffffffffffffffffffffffffffffffffffff1673ffffffffffffffffffffffffffffffffffffffff16815260200160028201805480602002602001604051908101604052809291908181526020018280548015610d2a57602002820191906000526020600020905b815481526020019060010190808311610d16575b5050505050815260200160038201548152505090505b600073ffffffffffffffffffffffffffffffffffffffff168273ffffffffffffffffffffffffffffffffffffffff1614158015610d92575060015481606001518460600151610d8f919061302d565b11155b15610f9657600081606001518460600151610dad919061302d565b90506064600560008381526020019081526020016000205487610dd09190612fd3565b610dda9190612fa2565b600660008573ffffffffffffffffffffffffffffffffffffffff1673ffffffffffffffffffffffffffffffffffffffff1681526020019081526020016000206000828254610e289190612f4c565b9250508190555081602001519250600360008473ffffffffffffffffffffffffffffffffffffffff1673ffffffffffffffffffffffffffffffffffffffff1681526020019081526020016000206040518060800160405290816000820160009054906101000a900473ffffffffffffffffffffffffffffffffffffffff1673ffffffffffffffffffffffffffffffffffffffff1673ffffffffffffffffffffffffffffffffffffffff1681526020016001820160009054906101000a900473ffffffffffffffffffffffffffffffffffffffff1673ffffffffffffffffffffffffffffffffffffffff1673ffffffffffffffffffffffffffffffffffffffff16815260200160028201805480602002602001604051908101604052809291908181526020018280548015610f7b57602002820191906000526020600020905b815481526020019060010190808311610f67575b50505050508152602001600382015481525050915050610d40565b5050505050565b60405180608001604052803373ffffffffffffffffffffffffffffffffffffffff1681526020018273ffffffffffffffffffffffffffffffffffffffff168152602001600067ffffffffffffffff811115611021577f4e487b7100000000000000000000000000000000000000000000000000000000600052604160045260246000fd5b60405190808252806020026020018201604052801561104f5781602001602082028036833780820191505090505b5081526020016000815250600360003373ffffffffffffffffffffffffffffffffffffffff1673ffffffffffffffffffffffffffffffffffffffff16815260200190815260200160002060008201518160000160006101000a81548173ffffffffffffffffffffffffffffffffffffffff021916908373ffffffffffffffffffffffffffffffffffffffff16021790555060208201518160010160006101000a81548173ffffffffffffffffffffffffffffffffffffffff021916908373ffffffffffffffffffffffffffffffffffffffff1602179055506040820151816002019080519060200190611143929190612ae5565b5060608201518160030155905050600073ffffffffffffffffffffffffffffffffffffffff168173ffffffffffffffffffffffffffffffffffffffff1614156112e6576007600360003373ffffffffffffffffffffffffffffffffffffffff1673ffffffffffffffffffffffffffffffffffffffff16815260200190815260200160002090806001815401808255809150506001900390600052602060002090600402016000909190919091506000820160009054906101000a900473ffffffffffffffffffffffffffffffffffffffff168160000160006101000a81548173ffffffffffffffffffffffffffffffffffffffff021916908373ffffffffffffffffffffffffffffffffffffffff1602179055506001820160009054906101000a900473ffffffffffffffffffffffffffffffffffffffff168160010160006101000a81548173ffffffffffffffffffffffffffffffffffffffff021916908373ffffffffffffffffffffffffffffffffffffffff16021790555060028201816002019080546112d4929190612b32565b506003820154816003015550506113b5565b6000600360008373ffffffffffffffffffffffffffffffffffffffff1673ffffffffffffffffffffffffffffffffffffffff16815260200190815260200160002090506001816003015461133a9190612f4c565b600360003373ffffffffffffffffffffffffffffffffffffffff1673ffffffffffffffffffffffffffffffffffffffff168152602001908152602001600020600301819055508060020161138d33611427565b9080600181540180825580915050600190039060005260206000200160009091909190915055505b50565b6000600a60008373ffffffffffffffffffffffffffffffffffffffff1673ffffffffffffffffffffffffffffffffffffffff168152602001908152602001600020549050919050565b600a6020528060005260406000206000915090505481565b611424816000610618565b50565b600060608273ffffffffffffffffffffffffffffffffffffffff16901b60001b9050919050565b6000600360008373ffffffffffffffffffffffffffffffffffffffff1673ffffffffffffffffffffffffffffffffffffffff1681526020019081526020016000206040518060800160405290816000820160009054906101000a900473ffffffffffffffffffffffffffffffffffffffff1673ffffffffffffffffffffffffffffffffffffffff1673ffffffffffffffffffffffffffffffffffffffff1681526020016001820160009054906101000a900473ffffffffffffffffffffffffffffffffffffffff1673ffffffffffffffffffffffffffffffffffffffff1673ffffffffffffffffffffffffffffffffffffffff1681526020016002820180548060200260200160405190810160405280929190818152602001828054801561159557602002820191906000526020600020905b815481526020019060010190808311611581575b505050505081526020016003820154815250509050600081602001519050600073ffffffffffffffffffffffffffffffffffffffff168173ffffffffffffffffffffffffffffffffffffffff1614156115ed57600080fd5b6000600360008373ffffffffffffffffffffffffffffffffffffffff1673ffffffffffffffffffffffffffffffffffffffff1681526020019081526020016000206040518060800160405290816000820160009054906101000a900473ffffffffffffffffffffffffffffffffffffffff1673ffffffffffffffffffffffffffffffffffffffff1673ffffffffffffffffffffffffffffffffffffffff1681526020016001820160009054906101000a900473ffffffffffffffffffffffffffffffffffffffff1673ffffffffffffffffffffffffffffffffffffffff1673ffffffffffffffffffffffffffffffffffffffff1681526020016002820180548060200260200160405190810160405280929190818152602001828054801561173457602002820191906000526020600020905b815481526020019060010190808311611720575b5050505050815260200160038201548152505090505b600073ffffffffffffffffffffffffffffffffffffffff168273ffffffffffffffffffffffffffffffffffffffff161415801561179c575060025481606001518460600151611799919061302d565b11155b156119a0576000816060015184606001516117b7919061302d565b905060646004600083815260200190815260200160002054876117da9190612fd3565b6117e49190612fa2565b600660008573ffffffffffffffffffffffffffffffffffffffff1673ffffffffffffffffffffffffffffffffffffffff16815260200190815260200160002060008282546118329190612f4c565b9250508190555081602001519250600360008473ffffffffffffffffffffffffffffffffffffffff1673ffffffffffffffffffffffffffffffffffffffff1681526020019081526020016000206040518060800160405290816000820160009054906101000a900473ffffffffffffffffffffffffffffffffffffffff1673ffffffffffffffffffffffffffffffffffffffff1673ffffffffffffffffffffffffffffffffffffffff1681526020016001820160009054906101000a900473ffffffffffffffffffffffffffffffffffffffff1673ffffffffffffffffffffffffffffffffffffffff1673ffffffffffffffffffffffffffffffffffffffff1681526020016002820180548060200260200160405190810160405280929190818152602001828054801561198557602002820191906000526020600020905b815481526020019060010190808311611971575b5050505050815260200160038201548152505091505061174a565b5050505050565b60025481565b600e6020528060005260406000206000915054906101000a900473ffffffffffffffffffffffffffffffffffffffff1681565b600c6020528060005260406000206000915054906101000a900460ff1681565b60066020528060005260406000206000915090505481565b60008054906101000a900473ffffffffffffffffffffffffffffffffffffffff1681565b6000600360008373ffffffffffffffffffffffffffffffffffffffff1673ffffffffffffffffffffffffffffffffffffffff1681526020019081526020016000206040518060800160405290816000820160009054906101000a900473ffffffffffffffffffffffffffffffffffffffff1673ffffffffffffffffffffffffffffffffffffffff1673ffffffffffffffffffffffffffffffffffffffff1681526020016001820160009054906101000a900473ffffffffffffffffffffffffffffffffffffffff1673ffffffffffffffffffffffffffffffffffffffff1673ffffffffffffffffffffffffffffffffffffffff16815260200160028201805480602002602001604051908101604052809291908181526020018280548015611b8357602002820191906000526020600020905b815481526020019060010190808311611b6f575b5050505050815260200160038201548152505090503373ffffffffffffffffffffffffffffffffffffffff16816020015173ffffffffffffffffffffffffffffffffffffffff1614611bd457600080fd5b600360008373ffffffffffffffffffffffffffffffffffffffff1673ffffffffffffffffffffffffffffffffffffffff168152602001908152602001600020600080820160006101000a81549073ffffffffffffffffffffffffffffffffffffffff02191690556001820160006101000a81549073ffffffffffffffffffffffffffffffffffffffff0219169055600282016000611c729190612b84565b60038201600090555050600060036000836020015173ffffffffffffffffffffffffffffffffffffffff1673ffffffffffffffffffffffffffffffffffffffff168152602001908152602001600020905060005b8160020180549050811015611d8b57611cde84611427565b826002018281548110611d1a577f4e487b7100000000000000000000000000000000000000000000000000000000600052603260045260246000fd5b90600052602060002001541415611d7a57816002018181548110611d67577f4e487b7100000000000000000000000000000000000000000000000000000000600052603260045260246000fd5b9060005260206000200160009055611d8b565b80611d84906130fb565b9050611cc6565b50505050565b60008054906101000a900473ffffffffffffffffffffffffffffffffffffffff1673ffffffffffffffffffffffffffffffffffffffff163373ffffffffffffffffffffffffffffffffffffffff1614611de957600080fd5b8060056000600160008154611dfd906130fb565b91905081905581526020019081526020016000208190555050565b600e60008273ffffffffffffffffffffffffffffffffffffffff1673ffffffffffffffffffffffffffffffffffffffff16815260200190815260200160002060009054906101000a900473ffffffffffffffffffffffffffffffffffffffff1673ffffffffffffffffffffffffffffffffffffffff1663681fe70c6040518163ffffffff1660e01b815260040160206040518083038186803b158015611ebd57600080fd5b505afa158015611ed1573d6000803e3d6000fd5b505050506040513d601f19601f82011682018060405250810190611ef59190612c3f565b15611eff57600080fd5b6000600e60008373ffffffffffffffffffffffffffffffffffffffff1673ffffffffffffffffffffffffffffffffffffffff16815260200190815260200160002060009054906101000a900473ffffffffffffffffffffffffffffffffffffffff1673ffffffffffffffffffffffffffffffffffffffff16635af7b35a6040518163ffffffff1660e01b815260040160206040518083038186803b158015611fa657600080fd5b505afa158015611fba573d6000803e3d6000fd5b505050506040513d601f19601f82011682018060405250810190611fde9190612c91565b90505b601e8142611fef919061302d565b106124de57600e60008373ffffffffffffffffffffffffffffffffffffffff1673ffffffffffffffffffffffffffffffffffffffff16815260200190815260200160002060009054906101000a900473ffffffffffffffffffffffffffffffffffffffff1673ffffffffffffffffffffffffffffffffffffffff1663982d64d4600e60008573ffffffffffffffffffffffffffffffffffffffff1673ffffffffffffffffffffffffffffffffffffffff16815260200190815260200160002060009054906101000a900473ffffffffffffffffffffffffffffffffffffffff1673ffffffffffffffffffffffffffffffffffffffff166318f70f966040518163ffffffff1660e01b815260040160206040518083038186803b15801561211457600080fd5b505afa158015612128573d6000803e3d6000fd5b505050506040513d601f19601f8201168201806040525081019061214c9190612c91565b601e846121599190612f4c565b6040518363ffffffff1660e01b8152600401612176929190612f12565b600060405180830381600087803b15801561219057600080fd5b505af11580156121a4573d6000803e3d6000fd5b50505050606483600a60008573ffffffffffffffffffffffffffffffffffffffff1673ffffffffffffffffffffffffffffffffffffffff168152602001908152602001600020546121f59190612fd3565b6121ff9190612fa2565b600d60008473ffffffffffffffffffffffffffffffffffffffff1673ffffffffffffffffffffffffffffffffffffffff168152602001908152602001600020600082825461224d9190612f4c565b92505081905550600e60008373ffffffffffffffffffffffffffffffffffffffff1673ffffffffffffffffffffffffffffffffffffffff16815260200190815260200160002060009054906101000a900473ffffffffffffffffffffffffffffffffffffffff1673ffffffffffffffffffffffffffffffffffffffff1663957908d16040518163ffffffff1660e01b8152600401600060405180830381600087803b1580156122fb57600080fd5b505af115801561230f573d6000803e3d6000fd5b50505050600e60008373ffffffffffffffffffffffffffffffffffffffff1673ffffffffffffffffffffffffffffffffffffffff16815260200190815260200160002060009054906101000a900473ffffffffffffffffffffffffffffffffffffffff1673ffffffffffffffffffffffffffffffffffffffff1663681fe70c6040518163ffffffff1660e01b815260040160206040518083038186803b1580156123b857600080fd5b505afa1580156123cc573d6000803e3d6000fd5b505050506040513d601f19601f820116820180604052508101906123f09190612c3f565b156123fa576124de565b600e60008373ffffffffffffffffffffffffffffffffffffffff1673ffffffffffffffffffffffffffffffffffffffff16815260200190815260200160002060009054906101000a900473ffffffffffffffffffffffffffffffffffffffff1673ffffffffffffffffffffffffffffffffffffffff16635af7b35a6040518163ffffffff1660e01b815260040160206040518083038186803b15801561249f57600080fd5b505afa1580156124b3573d6000803e3d6000fd5b505050506040513d601f19601f820116820180604052508101906124d79190612c91565b9050611fe1565b612527600d60008473ffffffffffffffffffffffffffffffffffffffff1673ffffffffffffffffffffffffffffffffffffffff168152602001908152602001600020548361144e565b505050565b6000600a60003373ffffffffffffffffffffffffffffffffffffffff1673ffffffffffffffffffffffffffffffffffffffff168152602001908152602001600020549050600081116125b3576040517f08c379a00000000000000000000000000000000000000000000000000000000081526004016125aa90612eb7565b60405180910390fd5b600860009054906101000a900473ffffffffffffffffffffffffffffffffffffffff1673ffffffffffffffffffffffffffffffffffffffff1663a9059cbb33836040518363ffffffff1660e01b8152600401612610929190612e22565b602060405180830381600087803b15801561262a57600080fd5b505af115801561263e573d6000803e3d6000fd5b505050506040513d601f19601f820116820180604052508101906126629190612c3f565b5061266c33611a3c565b6000600a60003373ffffffffffffffffffffffffffffffffffffffff1673ffffffffffffffffffffffffffffffffffffffff168152602001908152602001600020819055506000600c60003373ffffffffffffffffffffffffffffffffffffffff1673ffffffffffffffffffffffffffffffffffffffff16815260200190815260200160002060006101000a81548160ff02191690831515021790555050565b60036020528060005260406000206000915090508060000160009054906101000a900473ffffffffffffffffffffffffffffffffffffffff16908060010160009054906101000a900473ffffffffffffffffffffffffffffffffffffffff16908060030154905083565b60008054906101000a900473ffffffffffffffffffffffffffffffffffffffff1673ffffffffffffffffffffffffffffffffffffffff163373ffffffffffffffffffffffffffffffffffffffff16146127ce57600080fd5b80600460006002600081546127e2906130fb565b91905081905581526020019081526020016000208190555050565b6000600660003373ffffffffffffffffffffffffffffffffffffffff1673ffffffffffffffffffffffffffffffffffffffff16815260200190815260200160002054600d60003373ffffffffffffffffffffffffffffffffffffffff1673ffffffffffffffffffffffffffffffffffffffff168152602001908152602001600020546128899190612f4c565b90506000600d60003373ffffffffffffffffffffffffffffffffffffffff1673ffffffffffffffffffffffffffffffffffffffff168152602001908152602001600020819055506000600660003373ffffffffffffffffffffffffffffffffffffffff1673ffffffffffffffffffffffffffffffffffffffff16815260200190815260200160002081905550600860009054906101000a900473ffffffffffffffffffffffffffffffffffffffff1673ffffffffffffffffffffffffffffffffffffffff1663a9059cbb33836040518363ffffffff1660e01b8152600401612972929190612e22565b602060405180830381600087803b15801561298c57600080fd5b505af11580156129a0573d6000803e3d6000fd5b505050506040513d601f19601f820116820180604052508101906129c49190612c3f565b5050565b600b6020528060005260406000206000915054906101000a900460ff1681565b60015481565b60056020528060005260406000206000915090505481565b60078181548110612a1657600080fd5b90600052602060002090600402016000915090508060000160009054906101000a900473ffffffffffffffffffffffffffffffffffffffff16908060010160009054906101000a900473ffffffffffffffffffffffffffffffffffffffff16908060030154905083565b600860009054906101000a900473ffffffffffffffffffffffffffffffffffffffff1681565b60098181548110612ab657600080fd5b906000526020600020016000915054906101000a900473ffffffffffffffffffffffffffffffffffffffff1681565b828054828255906000526020600020908101928215612b21579160200282015b82811115612b20578251825591602001919060010190612b05565b5b509050612b2e9190612ba5565b5090565b828054828255906000526020600020908101928215612b735760005260206000209182015b82811115612b72578254825591600101919060010190612b57565b5b509050612b809190612ba5565b5090565b5080546000825590600052602060002090810190612ba29190612ba5565b50565b5b80821115612bbe576000816000905550600101612ba6565b5090565b600081359050612bd1816131a2565b92915050565b600081519050612be6816131b9565b92915050565b600081359050612bfb816131d0565b92915050565b600081519050612c10816131d0565b92915050565b600060208284031215612c2857600080fd5b6000612c3684828501612bc2565b91505092915050565b600060208284031215612c5157600080fd5b6000612c5f84828501612bd7565b91505092915050565b600060208284031215612c7a57600080fd5b6000612c8884828501612bec565b91505092915050565b600060208284031215612ca357600080fd5b6000612cb184828501612c01565b91505092915050565b60008060408385031215612ccd57600080fd5b6000612cdb85828601612bec565b9250506020612cec85828601612bc2565b9150509250929050565b612cff81613061565b82525050565b612d0e81613073565b82525050565b612d1d8161307f565b82525050565b612d2c816130b3565b82525050565b612d3b816130d7565b82525050565b6000612d4e601383612f3b565b91507f62616c616e63652063616e6e6f742062652030000000000000000000000000006000830152602082019050919050565b6000612d8e601283612f3b565b91507f616d6f756e742063616e6e6f74206265203000000000000000000000000000006000830152602082019050919050565b612dca816130a9565b82525050565b6000602082019050612de56000830184612cf6565b92915050565b6000606082019050612e006000830186612cf6565b612e0d6020830185612cf6565b612e1a6040830184612dc1565b949350505050565b6000604082019050612e376000830185612cf6565b612e446020830184612dc1565b9392505050565b6000602082019050612e606000830184612d05565b92915050565b6000602082019050612e7b6000830184612d14565b92915050565b6000602082019050612e966000830184612d23565b92915050565b6000602082019050612eb16000830184612d32565b92915050565b60006020820190508181036000830152612ed081612d41565b9050919050565b60006020820190508181036000830152612ef081612d81565b9050919050565b6000602082019050612f0c6000830184612dc1565b92915050565b6000604082019050612f276000830185612dc1565b612f346020830184612dc1565b9392505050565b600082825260208201905092915050565b6000612f57826130a9565b9150612f62836130a9565b9250827fffffffffffffffffffffffffffffffffffffffffffffffffffffffffffffffff03821115612f9757612f96613144565b5b828201905092915050565b6000612fad826130a9565b9150612fb8836130a9565b925082612fc857612fc7613173565b5b828204905092915050565b6000612fde826130a9565b9150612fe9836130a9565b9250817fffffffffffffffffffffffffffffffffffffffffffffffffffffffffffffffff048311821515161561302257613021613144565b5b828202905092915050565b6000613038826130a9565b9150613043836130a9565b92508282101561305657613055613144565b5b828203905092915050565b600061306c82613089565b9050919050565b60008115159050919050565b6000819050919050565b600073ffffffffffffffffffffffffffffffffffffffff82169050919050565b6000819050919050565b60006130be826130c5565b9050919050565b60006130d082613089565b9050919050565b60006130e2826130e9565b9050919050565b60006130f482613089565b9050919050565b6000613106826130a9565b91507fffffffffffffffffffffffffffffffffffffffffffffffffffffffffffffffff82141561313957613138613144565b5b600182019050919050565b7f4e487b7100000000000000000000000000000000000000000000000000000000600052601160045260246000fd5b7f4e487b7100000000000000000000000000000000000000000000000000000000600052601260045260246000fd5b6131ab81613061565b81146131b657600080fd5b50565b6131c281613073565b81146131cd57600080fd5b50565b6131d9816130a9565b81146131e457600080fd5b5056fea2646970667358221220c3bf0ff778dc4365cf3a6ec05797a4585e75c80a90932c90fe6484ea356e06db64736f6c63430008000033",
  "immutableReferences": {},
  "source": "// SPDX-License-Identifier: MIT\r\npragma solidity ^0.8.0;\r\n\r\nimport \"./LivToken.sol\";\r\nimport \"./Referral.sol\";\r\nimport \"./Queue.sol\";\r\n// import \"./DaiToken.sol\";\r\n\r\ncontract Staking is Referral{\r\n\r\n  LivToken public livToken;\r\n\r\n  address[] public stakers;\r\n  mapping(address => uint) public stakingBalance;\r\n  mapping(address => bool) public hasStaked;\r\n  mapping(address => bool) public isStaking;\r\n  mapping(address => uint) public rewards;\r\n  mapping(address => Queue) public depositQueue;\r\n  \r\n  \r\n  constructor(LivToken _livToken) Referral(){\r\n     livToken = _livToken;\r\n     owner = msg.sender;\r\n  }\r\n    \r\n    function stakeWithoutParent(uint _amount) public {\r\n        stakeTokens(_amount, address(0));\r\n    }\r\n  function stakeTokens(uint _amount, address _parent) public{\r\n\r\n    require(_amount > 0, \"amount cannot be 0\");\r\n    livToken.transferFrom(msg.sender, address(this), _amount);\r\n    depositQueue[msg.sender].enqueue(_amount, block.timestamp);\r\n    stakingBalance[msg.sender] = stakingBalance[msg.sender] + _amount;\r\n    \r\n    if(!hasStaked[msg.sender]) {\r\n      stakers.push(msg.sender);\r\n    }\r\n    addUser(_parent);\r\n    distributeDepositCommissions(_amount, msg.sender);\r\n    isStaking[msg.sender] = true;\r\n    hasStaked[msg.sender] = true;\r\n  }\r\n\r\n  function stakeOf(address _stakeholder)\r\n        public\r\n        view\r\n        returns(uint)\r\n    {\r\n        return stakingBalance[_stakeholder];\r\n    }\r\n\r\n  function calculateReward(uint apy, address stakeHolder) public {\r\n      require(!depositQueue[stakeHolder].isEmpty());\r\n        uint256 time = depositQueue[stakeHolder].returnFirstTime();\r\n     while(block.timestamp - time >= 30 seconds){\r\n         depositQueue[stakeHolder].enqueue(depositQueue[stakeHolder].returnFirstAmount(), time + 30 seconds);\r\n        rewards[stakeHolder] += stakingBalance[stakeHolder]*apy/uint(100);\r\n        depositQueue[stakeHolder].dequeue();\r\n        \r\n        if(depositQueue[stakeHolder].isEmpty()){\r\n            break;\r\n        }\r\n        time = depositQueue[stakeHolder].returnFirstTime();\r\n     }\r\n    distributeInterestCommissions(rewards[stakeHolder], stakeHolder);\r\n  }\r\n\r\n  \r\n    function rewardOf(address _stakeholder) \r\n        public\r\n        view\r\n        returns(uint)\r\n    {\r\n        return rewards[_stakeholder];\r\n    }\r\n\r\n    function withdrawReward() \r\n        public\r\n    {\r\n        uint reward = rewards[msg.sender] + commissions[msg.sender];\r\n        rewards[msg.sender] = 0;\r\n        commissions[msg.sender] = 0;\r\n        livToken.transfer(msg.sender, reward);\r\n    }\r\n\r\n  function unstakeTokens() public {\r\n    uint balance = stakingBalance[msg.sender];\r\n    require(balance > 0, \"balance cannot be 0\");\r\n\r\n    livToken.transfer(msg.sender, balance);\r\n    removeUser(msg.sender);\r\n    stakingBalance[msg.sender] = 0;\r\n    isStaking[msg.sender] = false;\r\n  }\r\n}",
  "sourcePath": "C:/Users/lenovo/OneDrive/Desktop/proj/contracts/StakingLiv.sol",
  "compiler": {
    "name": "solc",
    "version": "0.8.0+commit.c7dfd78e.Emscripten.clang"
  },
  "schemaVersion": "3.4.1",
  "updatedAt": "2021-08-14T18:56:49.742Z",
  "devdoc": {
    "kind": "dev",
    "methods": {},
    "version": 1
  },
  "userdoc": {
    "kind": "user",
    "methods": {},
    "version": 1
  }
}