{
  "contractName": "Staking",
  "abi": [
    {
      "inputs": [
        {
          "internalType": "contract LivToken",
          "name": "_livToken",
          "type": "address"
        }
      ],
      "stateMutability": "nonpayable",
      "type": "constructor"
    },
    {
      "inputs": [
        {
          "internalType": "uint256",
          "name": "_commission",
          "type": "uint256"
        }
      ],
      "name": "addDepositLevel",
      "outputs": [],
      "stateMutability": "nonpayable",
      "type": "function"
    },
    {
      "inputs": [
        {
          "internalType": "uint256",
          "name": "_commission",
          "type": "uint256"
        }
      ],
      "name": "addInterestLevel",
      "outputs": [],
      "stateMutability": "nonpayable",
      "type": "function"
    },
    {
      "inputs": [
        {
          "internalType": "address",
          "name": "_parent",
          "type": "address"
        }
      ],
      "name": "addUser",
      "outputs": [],
      "stateMutability": "nonpayable",
      "type": "function"
    },
    {
      "inputs": [
        {
          "internalType": "address",
          "name": "",
          "type": "address"
        }
      ],
      "name": "commissions",
      "outputs": [
        {
          "internalType": "uint256",
          "name": "",
          "type": "uint256"
        }
      ],
      "stateMutability": "view",
      "type": "function",
      "constant": true
    },
    {
      "inputs": [
        {
          "internalType": "uint256",
          "name": "",
          "type": "uint256"
        }
      ],
      "name": "depositCommission",
      "outputs": [
        {
          "internalType": "uint256",
          "name": "",
          "type": "uint256"
        }
      ],
      "stateMutability": "view",
      "type": "function",
      "constant": true
    },
    {
      "inputs": [],
      "name": "depositLevels",
      "outputs": [
        {
          "internalType": "uint256",
          "name": "",
          "type": "uint256"
        }
      ],
      "stateMutability": "view",
      "type": "function",
      "constant": true
    },
    {
      "inputs": [
        {
          "internalType": "address",
          "name": "",
          "type": "address"
        }
      ],
      "name": "depositQueue",
      "outputs": [
        {
          "internalType": "contract Queue",
          "name": "",
          "type": "address"
        }
      ],
      "stateMutability": "view",
      "type": "function",
      "constant": true
    },
    {
      "inputs": [
        {
          "internalType": "uint256",
          "name": "_deposit",
          "type": "uint256"
        },
        {
          "internalType": "address",
          "name": "_addr",
          "type": "address"
        }
      ],
      "name": "distributeDepositCommissions",
      "outputs": [],
      "stateMutability": "nonpayable",
      "type": "function"
    },
    {
      "inputs": [
        {
          "internalType": "uint256",
          "name": "_interest",
          "type": "uint256"
        },
        {
          "internalType": "address",
          "name": "_addr",
          "type": "address"
        }
      ],
      "name": "distributeInterestCommissions",
      "outputs": [],
      "stateMutability": "nonpayable",
      "type": "function"
    },
    {
      "inputs": [
        {
          "internalType": "address",
          "name": "",
          "type": "address"
        }
      ],
      "name": "hasStaked",
      "outputs": [
        {
          "internalType": "bool",
          "name": "",
          "type": "bool"
        }
      ],
      "stateMutability": "view",
      "type": "function",
      "constant": true
    },
    {
      "inputs": [
        {
          "internalType": "uint256",
          "name": "",
          "type": "uint256"
        }
      ],
      "name": "interestCommission",
      "outputs": [
        {
          "internalType": "uint256",
          "name": "",
          "type": "uint256"
        }
      ],
      "stateMutability": "view",
      "type": "function",
      "constant": true
    },
    {
      "inputs": [],
      "name": "interestLevels",
      "outputs": [
        {
          "internalType": "uint256",
          "name": "",
          "type": "uint256"
        }
      ],
      "stateMutability": "view",
      "type": "function",
      "constant": true
    },
    {
      "inputs": [
        {
          "internalType": "address",
          "name": "",
          "type": "address"
        }
      ],
      "name": "isStaking",
      "outputs": [
        {
          "internalType": "bool",
          "name": "",
          "type": "bool"
        }
      ],
      "stateMutability": "view",
      "type": "function",
      "constant": true
    },
    {
      "inputs": [],
      "name": "livToken",
      "outputs": [
        {
          "internalType": "contract LivToken",
          "name": "",
          "type": "address"
        }
      ],
      "stateMutability": "view",
      "type": "function",
      "constant": true
    },
    {
      "inputs": [],
      "name": "owner",
      "outputs": [
        {
          "internalType": "address",
          "name": "",
          "type": "address"
        }
      ],
      "stateMutability": "view",
      "type": "function",
      "constant": true
    },
    {
      "inputs": [
        {
          "internalType": "address",
          "name": "_addr",
          "type": "address"
        }
      ],
      "name": "removeUser",
      "outputs": [],
      "stateMutability": "nonpayable",
      "type": "function"
    },
    {
      "inputs": [
        {
          "internalType": "address",
          "name": "",
          "type": "address"
        }
      ],
      "name": "rewards",
      "outputs": [
        {
          "internalType": "uint256",
          "name": "",
          "type": "uint256"
        }
      ],
      "stateMutability": "view",
      "type": "function",
      "constant": true
    },
    {
      "inputs": [
        {
          "internalType": "uint256",
          "name": "",
          "type": "uint256"
        }
      ],
      "name": "stakers",
      "outputs": [
        {
          "internalType": "address",
          "name": "",
          "type": "address"
        }
      ],
      "stateMutability": "view",
      "type": "function",
      "constant": true
    },
    {
      "inputs": [
        {
          "internalType": "address",
          "name": "",
          "type": "address"
        }
      ],
      "name": "stakingBalance",
      "outputs": [
        {
          "internalType": "uint256",
          "name": "",
          "type": "uint256"
        }
      ],
      "stateMutability": "view",
      "type": "function",
      "constant": true
    },
    {
      "inputs": [
        {
          "internalType": "address",
          "name": "_addr",
          "type": "address"
        }
      ],
      "name": "toBytes",
      "outputs": [
        {
          "internalType": "bytes32",
          "name": "",
          "type": "bytes32"
        }
      ],
      "stateMutability": "pure",
      "type": "function",
      "constant": true
    },
    {
      "inputs": [
        {
          "internalType": "uint256",
          "name": "",
          "type": "uint256"
        }
      ],
      "name": "topLevels",
      "outputs": [
        {
          "internalType": "address",
          "name": "addr",
          "type": "address"
        },
        {
          "internalType": "address",
          "name": "parent",
          "type": "address"
        },
        {
          "internalType": "uint256",
          "name": "level",
          "type": "uint256"
        }
      ],
      "stateMutability": "view",
      "type": "function",
      "constant": true
    },
    {
      "inputs": [
        {
          "internalType": "address",
          "name": "",
          "type": "address"
        }
      ],
      "name": "users",
      "outputs": [
        {
          "internalType": "address",
          "name": "addr",
          "type": "address"
        },
        {
          "internalType": "address",
          "name": "parent",
          "type": "address"
        },
        {
          "internalType": "uint256",
          "name": "level",
          "type": "uint256"
        }
      ],
      "stateMutability": "view",
      "type": "function",
      "constant": true
    },
    {
      "inputs": [
        {
          "internalType": "uint256",
          "name": "_amount",
          "type": "uint256"
        }
      ],
      "name": "stakeWithoutParent",
      "outputs": [],
      "stateMutability": "nonpayable",
      "type": "function"
    },
    {
      "inputs": [
        {
          "internalType": "uint256",
          "name": "_amount",
          "type": "uint256"
        },
        {
          "internalType": "address",
          "name": "_parent",
          "type": "address"
        }
      ],
      "name": "stakeTokens",
      "outputs": [],
      "stateMutability": "nonpayable",
      "type": "function"
    },
    {
      "inputs": [],
      "name": "returnAddress",
      "outputs": [
        {
          "internalType": "address",
          "name": "",
          "type": "address"
        }
      ],
      "stateMutability": "view",
      "type": "function",
      "constant": true
    },
    {
      "inputs": [
        {
          "internalType": "address",
          "name": "_stakeholder",
          "type": "address"
        }
      ],
      "name": "stakeOf",
      "outputs": [
        {
          "internalType": "uint256",
          "name": "",
          "type": "uint256"
        }
      ],
      "stateMutability": "view",
      "type": "function",
      "constant": true
    },
    {
      "inputs": [
        {
          "internalType": "uint256",
          "name": "apy",
          "type": "uint256"
        },
        {
          "internalType": "address",
          "name": "stakeHolder",
          "type": "address"
        }
      ],
      "name": "calculateReward",
      "outputs": [],
      "stateMutability": "nonpayable",
      "type": "function"
    },
    {
      "inputs": [
        {
          "internalType": "address",
          "name": "_stakeholder",
          "type": "address"
        }
      ],
      "name": "rewardOf",
      "outputs": [
        {
          "internalType": "uint256",
          "name": "",
          "type": "uint256"
        }
      ],
      "stateMutability": "view",
      "type": "function",
      "constant": true
    },
    {
      "inputs": [],
      "name": "withdrawReward",
      "outputs": [],
      "stateMutability": "nonpayable",
      "type": "function"
    },
    {
      "inputs": [],
      "name": "unstakeTokens",
      "outputs": [],
      "stateMutability": "nonpayable",
      "type": "function"
    }
  ],
  "bytecode": "0x60806040523480156200001157600080fd5b5060405162003a4d38038062003a4d833981810160405281019062000037919062000126565b336000806101000a81548173ffffffffffffffffffffffffffffffffffffffff021916908373ffffffffffffffffffffffffffffffffffffffff1602179055506000600181905550600060028190555080600860006101000a81548173ffffffffffffffffffffffffffffffffffffffff021916908373ffffffffffffffffffffffffffffffffffffffff160217905550336000806101000a81548173ffffffffffffffffffffffffffffffffffffffff021916908373ffffffffffffffffffffffffffffffffffffffff16021790555050620001b4565b60008151905062000120816200019a565b92915050565b6000602082840312156200013957600080fd5b600062000149848285016200010f565b91505092915050565b60006200015f826200017a565b9050919050565b6000620001738262000152565b9050919050565b600073ffffffffffffffffffffffffffffffffffffffff82169050919050565b620001a58162000166565b8114620001b157600080fd5b50565b61388980620001c46000396000f3fe608060405234801561001057600080fd5b50600436106101da5760003560e01c80638da5cb5b11610104578063bff774af116100a2578063d606f55011610071578063d606f55014610579578063dc9f3a18146105a9578063f8675b0a146105db578063fd5e6dd1146105f9576101da565b8063bff774af14610505578063c885bc5814610521578063c93c8f341461052b578063d5faafbe1461055b576101da565b80639d6c8990116100de5780639d6c899014610491578063a18f07a0146104ad578063a5ce413b146104c9578063a87430ba146104d3576101da565b80638da5cb5b14610439578063943640c3146104575780639857518814610475576101da565b806345bc78ab1161017c5780635f11f4681161014b5780635f11f4681461038b5780635f2c881a146103a95780636f49712b146103d95780637b05afb514610409576101da565b806345bc78ab146102f35780635740e31914610323578063593b79fe1461033f578063593cec511461036f576101da565b80631d62ebd9116101b85780631d62ebd91461025b5780632410d6541461028b578063421b2d8b146102a757806342623360146102c3576101da565b80630700037d146101df5780630bea440d1461020f5780630e79bb021461022b575b600080fd5b6101f960048036038101906101f49190612d91565b610629565b6040516102069190613072565b60405180910390f35b61022960048036038101906102249190612e35565b610641565b005b61024560048036038101906102409190612de3565b610ab2565b6040516102529190613072565b60405180910390f35b61027560048036038101906102709190612d91565b610aca565b6040516102829190613072565b60405180910390f35b6102a560048036038101906102a09190612e35565b610b13565b005b6102c160048036038101906102bc9190612d91565b611067565b005b6102dd60048036038101906102d89190612d91565b611482565b6040516102ea9190613072565b60405180910390f35b61030d60048036038101906103089190612d91565b6114cb565b60405161031a9190613072565b60405180910390f35b61033d60048036038101906103389190612de3565b6114e3565b005b61035960048036038101906103549190612d91565b6114f1565b6040516103669190612fe1565b60405180910390f35b61038960048036038101906103849190612e35565b611518565b005b610393611a6c565b6040516103a09190613072565b60405180910390f35b6103c360048036038101906103be9190612d91565b611a72565b6040516103d09190613017565b60405180910390f35b6103f360048036038101906103ee9190612d91565b611aa5565b6040516104009190612fc6565b60405180910390f35b610423600480360381019061041e9190612d91565b611ac5565b6040516104309190613072565b60405180910390f35b610441611add565b60405161044e9190612f4b565b60405180910390f35b61045f611b01565b60405161046c9190612f4b565b60405180910390f35b61048f600480360381019061048a9190612d91565b611b09565b005b6104ab60048036038101906104a69190612de3565b611e5e565b005b6104c760048036038101906104c29190612e35565b611ee5565b005b6104d161269a565b005b6104ed60048036038101906104e89190612d91565b61287a565b6040516104fc93929190612f66565b60405180910390f35b61051f600480360381019061051a9190612de3565b6128e4565b005b61052961296b565b005b61054560048036038101906105409190612d91565b612b36565b6040516105529190612fc6565b60405180910390f35b610563612b56565b6040516105709190613072565b60405180910390f35b610593600480360381019061058e9190612de3565b612b5c565b6040516105a09190613072565b60405180910390f35b6105c360048036038101906105be9190612de3565b612b74565b6040516105d293929190612f66565b60405180910390f35b6105e3612bee565b6040516105f09190612ffc565b60405180910390f35b610613600480360381019061060e9190612de3565b612c14565b6040516106209190612f4b565b60405180910390f35b600d6020528060005260406000206000915090505481565b60008211610684576040517f08c379a000000000000000000000000000000000000000000000000000000000815260040161067b90613052565b60405180910390fd5b600860009054906101000a900473ffffffffffffffffffffffffffffffffffffffff1673ffffffffffffffffffffffffffffffffffffffff166323b872dd3330856040518463ffffffff1660e01b81526004016106e393929190612f66565b602060405180830381600087803b1580156106fd57600080fd5b505af1158015610711573d6000803e3d6000fd5b505050506040513d601f19601f820116820180604052508101906107359190612dba565b5081600a60003373ffffffffffffffffffffffffffffffffffffffff1673ffffffffffffffffffffffffffffffffffffffff1681526020019081526020016000205461078191906130c7565b600a60003373ffffffffffffffffffffffffffffffffffffffff1673ffffffffffffffffffffffffffffffffffffffff16815260200190815260200160002081905550600b60003373ffffffffffffffffffffffffffffffffffffffff1673ffffffffffffffffffffffffffffffffffffffff16815260200190815260200160002060009054906101000a900460ff1661091f576009339080600181540180825580915050600190039060005260206000200160009091909190916101000a81548173ffffffffffffffffffffffffffffffffffffffff021916908373ffffffffffffffffffffffffffffffffffffffff16021790555060405161088490612c53565b604051809103906000f0801580156108a0573d6000803e3d6000fd5b50600e60003373ffffffffffffffffffffffffffffffffffffffff1673ffffffffffffffffffffffffffffffffffffffff16815260200190815260200160002060006101000a81548173ffffffffffffffffffffffffffffffffffffffff021916908373ffffffffffffffffffffffffffffffffffffffff1602179055505b600e60003373ffffffffffffffffffffffffffffffffffffffff1673ffffffffffffffffffffffffffffffffffffffff16815260200190815260200160002060009054906101000a900473ffffffffffffffffffffffffffffffffffffffff1673ffffffffffffffffffffffffffffffffffffffff1663982d64d483426040518363ffffffff1660e01b81526004016109b992919061308d565b600060405180830381600087803b1580156109d357600080fd5b505af11580156109e7573d6000803e3d6000fd5b505050506109f481611067565b6109fe8233610b13565b6001600c60003373ffffffffffffffffffffffffffffffffffffffff1673ffffffffffffffffffffffffffffffffffffffff16815260200190815260200160002060006101000a81548160ff0219169083151502179055506001600b60003373ffffffffffffffffffffffffffffffffffffffff1673ffffffffffffffffffffffffffffffffffffffff16815260200190815260200160002060006101000a81548160ff0219169083151502179055505050565b60046020528060005260406000206000915090505481565b6000600d60008373ffffffffffffffffffffffffffffffffffffffff1673ffffffffffffffffffffffffffffffffffffffff168152602001908152602001600020549050919050565b6000600360008373ffffffffffffffffffffffffffffffffffffffff1673ffffffffffffffffffffffffffffffffffffffff1681526020019081526020016000206040518060800160405290816000820160009054906101000a900473ffffffffffffffffffffffffffffffffffffffff1673ffffffffffffffffffffffffffffffffffffffff1673ffffffffffffffffffffffffffffffffffffffff1681526020016001820160009054906101000a900473ffffffffffffffffffffffffffffffffffffffff1673ffffffffffffffffffffffffffffffffffffffff1673ffffffffffffffffffffffffffffffffffffffff16815260200160028201805480602002602001604051908101604052809291908181526020018280548015610c5a57602002820191906000526020600020905b815481526020019060010190808311610c46575b505050505081526020016003820154815250509050600081602001519050600073ffffffffffffffffffffffffffffffffffffffff168173ffffffffffffffffffffffffffffffffffffffff1614611061576000600360008373ffffffffffffffffffffffffffffffffffffffff1673ffffffffffffffffffffffffffffffffffffffff1681526020019081526020016000206040518060800160405290816000820160009054906101000a900473ffffffffffffffffffffffffffffffffffffffff1673ffffffffffffffffffffffffffffffffffffffff1673ffffffffffffffffffffffffffffffffffffffff1681526020016001820160009054906101000a900473ffffffffffffffffffffffffffffffffffffffff1673ffffffffffffffffffffffffffffffffffffffff1673ffffffffffffffffffffffffffffffffffffffff16815260200160028201805480602002602001604051908101604052809291908181526020018280548015610df357602002820191906000526020600020905b815481526020019060010190808311610ddf575b5050505050815260200160038201548152505090505b600073ffffffffffffffffffffffffffffffffffffffff168273ffffffffffffffffffffffffffffffffffffffff1614158015610e5b575060015481606001518460600151610e5891906131a8565b11155b1561105f57600081606001518460600151610e7691906131a8565b90506064600560008381526020019081526020016000205487610e99919061314e565b610ea3919061311d565b600660008573ffffffffffffffffffffffffffffffffffffffff1673ffffffffffffffffffffffffffffffffffffffff1681526020019081526020016000206000828254610ef191906130c7565b9250508190555081602001519250600360008473ffffffffffffffffffffffffffffffffffffffff1673ffffffffffffffffffffffffffffffffffffffff1681526020019081526020016000206040518060800160405290816000820160009054906101000a900473ffffffffffffffffffffffffffffffffffffffff1673ffffffffffffffffffffffffffffffffffffffff1673ffffffffffffffffffffffffffffffffffffffff1681526020016001820160009054906101000a900473ffffffffffffffffffffffffffffffffffffffff1673ffffffffffffffffffffffffffffffffffffffff1673ffffffffffffffffffffffffffffffffffffffff1681526020016002820180548060200260200160405190810160405280929190818152602001828054801561104457602002820191906000526020600020905b815481526020019060010190808311611030575b50505050508152602001600382015481525050915050610e09565b505b50505050565b60405180608001604052803373ffffffffffffffffffffffffffffffffffffffff1681526020018273ffffffffffffffffffffffffffffffffffffffff168152602001600067ffffffffffffffff8111156110eb577f4e487b7100000000000000000000000000000000000000000000000000000000600052604160045260246000fd5b6040519080825280602002602001820160405280156111195781602001602082028036833780820191505090505b5081526020016000815250600360003373ffffffffffffffffffffffffffffffffffffffff1673ffffffffffffffffffffffffffffffffffffffff16815260200190815260200160002060008201518160000160006101000a81548173ffffffffffffffffffffffffffffffffffffffff021916908373ffffffffffffffffffffffffffffffffffffffff16021790555060208201518160010160006101000a81548173ffffffffffffffffffffffffffffffffffffffff021916908373ffffffffffffffffffffffffffffffffffffffff160217905550604082015181600201908051906020019061120d929190612c60565b5060608201518160030155905050600073ffffffffffffffffffffffffffffffffffffffff168173ffffffffffffffffffffffffffffffffffffffff1614156113b0576007600360003373ffffffffffffffffffffffffffffffffffffffff1673ffffffffffffffffffffffffffffffffffffffff16815260200190815260200160002090806001815401808255809150506001900390600052602060002090600402016000909190919091506000820160009054906101000a900473ffffffffffffffffffffffffffffffffffffffff168160000160006101000a81548173ffffffffffffffffffffffffffffffffffffffff021916908373ffffffffffffffffffffffffffffffffffffffff1602179055506001820160009054906101000a900473ffffffffffffffffffffffffffffffffffffffff168160010160006101000a81548173ffffffffffffffffffffffffffffffffffffffff021916908373ffffffffffffffffffffffffffffffffffffffff160217905550600282018160020190805461139e929190612cad565b5060038201548160030155505061147f565b6000600360008373ffffffffffffffffffffffffffffffffffffffff1673ffffffffffffffffffffffffffffffffffffffff16815260200190815260200160002090506001816003015461140491906130c7565b600360003373ffffffffffffffffffffffffffffffffffffffff1673ffffffffffffffffffffffffffffffffffffffff1681526020019081526020016000206003018190555080600201611457336114f1565b9080600181540180825580915050600190039060005260206000200160009091909190915055505b50565b6000600a60008373ffffffffffffffffffffffffffffffffffffffff1673ffffffffffffffffffffffffffffffffffffffff168152602001908152602001600020549050919050565b600a6020528060005260406000206000915090505481565b6114ee816000610641565b50565b600060608273ffffffffffffffffffffffffffffffffffffffff16901b60001b9050919050565b6000600360008373ffffffffffffffffffffffffffffffffffffffff1673ffffffffffffffffffffffffffffffffffffffff1681526020019081526020016000206040518060800160405290816000820160009054906101000a900473ffffffffffffffffffffffffffffffffffffffff1673ffffffffffffffffffffffffffffffffffffffff1673ffffffffffffffffffffffffffffffffffffffff1681526020016001820160009054906101000a900473ffffffffffffffffffffffffffffffffffffffff1673ffffffffffffffffffffffffffffffffffffffff1673ffffffffffffffffffffffffffffffffffffffff1681526020016002820180548060200260200160405190810160405280929190818152602001828054801561165f57602002820191906000526020600020905b81548152602001906001019080831161164b575b505050505081526020016003820154815250509050600081602001519050600073ffffffffffffffffffffffffffffffffffffffff168173ffffffffffffffffffffffffffffffffffffffff1614611a66576000600360008373ffffffffffffffffffffffffffffffffffffffff1673ffffffffffffffffffffffffffffffffffffffff1681526020019081526020016000206040518060800160405290816000820160009054906101000a900473ffffffffffffffffffffffffffffffffffffffff1673ffffffffffffffffffffffffffffffffffffffff1673ffffffffffffffffffffffffffffffffffffffff1681526020016001820160009054906101000a900473ffffffffffffffffffffffffffffffffffffffff1673ffffffffffffffffffffffffffffffffffffffff1673ffffffffffffffffffffffffffffffffffffffff168152602001600282018054806020026020016040519081016040528092919081815260200182805480156117f857602002820191906000526020600020905b8154815260200190600101908083116117e4575b5050505050815260200160038201548152505090505b600073ffffffffffffffffffffffffffffffffffffffff168273ffffffffffffffffffffffffffffffffffffffff161415801561186057506002548160600151846060015161185d91906131a8565b11155b15611a645760008160600151846060015161187b91906131a8565b9050606460046000838152602001908152602001600020548761189e919061314e565b6118a8919061311d565b600660008573ffffffffffffffffffffffffffffffffffffffff1673ffffffffffffffffffffffffffffffffffffffff16815260200190815260200160002060008282546118f691906130c7565b9250508190555081602001519250600360008473ffffffffffffffffffffffffffffffffffffffff1673ffffffffffffffffffffffffffffffffffffffff1681526020019081526020016000206040518060800160405290816000820160009054906101000a900473ffffffffffffffffffffffffffffffffffffffff1673ffffffffffffffffffffffffffffffffffffffff1673ffffffffffffffffffffffffffffffffffffffff1681526020016001820160009054906101000a900473ffffffffffffffffffffffffffffffffffffffff1673ffffffffffffffffffffffffffffffffffffffff1673ffffffffffffffffffffffffffffffffffffffff16815260200160028201805480602002602001604051908101604052809291908181526020018280548015611a4957602002820191906000526020600020905b815481526020019060010190808311611a35575b5050505050815260200160038201548152505091505061180e565b505b50505050565b60025481565b600e6020528060005260406000206000915054906101000a900473ffffffffffffffffffffffffffffffffffffffff1681565b600c6020528060005260406000206000915054906101000a900460ff1681565b60066020528060005260406000206000915090505481565b60008054906101000a900473ffffffffffffffffffffffffffffffffffffffff1681565b600030905090565b6000600360008373ffffffffffffffffffffffffffffffffffffffff1673ffffffffffffffffffffffffffffffffffffffff1681526020019081526020016000206040518060800160405290816000820160009054906101000a900473ffffffffffffffffffffffffffffffffffffffff1673ffffffffffffffffffffffffffffffffffffffff1673ffffffffffffffffffffffffffffffffffffffff1681526020016001820160009054906101000a900473ffffffffffffffffffffffffffffffffffffffff1673ffffffffffffffffffffffffffffffffffffffff1673ffffffffffffffffffffffffffffffffffffffff16815260200160028201805480602002602001604051908101604052809291908181526020018280548015611c5057602002820191906000526020600020905b815481526020019060010190808311611c3c575b5050505050815260200160038201548152505090503373ffffffffffffffffffffffffffffffffffffffff16816020015173ffffffffffffffffffffffffffffffffffffffff1614611ca157600080fd5b600360008373ffffffffffffffffffffffffffffffffffffffff1673ffffffffffffffffffffffffffffffffffffffff168152602001908152602001600020600080820160006101000a81549073ffffffffffffffffffffffffffffffffffffffff02191690556001820160006101000a81549073ffffffffffffffffffffffffffffffffffffffff0219169055600282016000611d3f9190612cff565b60038201600090555050600060036000836020015173ffffffffffffffffffffffffffffffffffffffff1673ffffffffffffffffffffffffffffffffffffffff168152602001908152602001600020905060005b8160020180549050811015611e5857611dab846114f1565b826002018281548110611de7577f4e487b7100000000000000000000000000000000000000000000000000000000600052603260045260246000fd5b90600052602060002001541415611e4757816002018181548110611e34577f4e487b7100000000000000000000000000000000000000000000000000000000600052603260045260246000fd5b9060005260206000200160009055611e58565b80611e5190613276565b9050611d93565b50505050565b60008054906101000a900473ffffffffffffffffffffffffffffffffffffffff1673ffffffffffffffffffffffffffffffffffffffff163373ffffffffffffffffffffffffffffffffffffffff1614611eb657600080fd5b8060056000600160008154611eca90613276565b91905081905581526020019081526020016000208190555050565b600e60008273ffffffffffffffffffffffffffffffffffffffff1673ffffffffffffffffffffffffffffffffffffffff16815260200190815260200160002060009054906101000a900473ffffffffffffffffffffffffffffffffffffffff1673ffffffffffffffffffffffffffffffffffffffff1663681fe70c6040518163ffffffff1660e01b815260040160206040518083038186803b158015611f8a57600080fd5b505afa158015611f9e573d6000803e3d6000fd5b505050506040513d601f19601f82011682018060405250810190611fc29190612dba565b15611fcc57600080fd5b6000600e60008373ffffffffffffffffffffffffffffffffffffffff1673ffffffffffffffffffffffffffffffffffffffff16815260200190815260200160002060009054906101000a900473ffffffffffffffffffffffffffffffffffffffff1673ffffffffffffffffffffffffffffffffffffffff16635af7b35a6040518163ffffffff1660e01b815260040160206040518083038186803b15801561207357600080fd5b505afa158015612087573d6000803e3d6000fd5b505050506040513d601f19601f820116820180604052508101906120ab9190612e0c565b90505b62278d0081426120be91906131a8565b1061264c57600e60008373ffffffffffffffffffffffffffffffffffffffff1673ffffffffffffffffffffffffffffffffffffffff16815260200190815260200160002060009054906101000a900473ffffffffffffffffffffffffffffffffffffffff1673ffffffffffffffffffffffffffffffffffffffff1663982d64d4600e60008573ffffffffffffffffffffffffffffffffffffffff1673ffffffffffffffffffffffffffffffffffffffff16815260200190815260200160002060009054906101000a900473ffffffffffffffffffffffffffffffffffffffff1673ffffffffffffffffffffffffffffffffffffffff166318f70f966040518163ffffffff1660e01b815260040160206040518083038186803b1580156121e357600080fd5b505afa1580156121f7573d6000803e3d6000fd5b505050506040513d601f19601f8201168201806040525081019061221b9190612e0c565b62278d008461222a91906130c7565b6040518363ffffffff1660e01b815260040161224792919061308d565b600060405180830381600087803b15801561226157600080fd5b505af1158015612275573d6000803e3d6000fd5b50505050606483600e60008573ffffffffffffffffffffffffffffffffffffffff1673ffffffffffffffffffffffffffffffffffffffff16815260200190815260200160002060009054906101000a900473ffffffffffffffffffffffffffffffffffffffff1673ffffffffffffffffffffffffffffffffffffffff166318f70f966040518163ffffffff1660e01b815260040160206040518083038186803b15801561232157600080fd5b505afa158015612335573d6000803e3d6000fd5b505050506040513d601f19601f820116820180604052508101906123599190612e0c565b612363919061314e565b61236d919061311d565b600d60008473ffffffffffffffffffffffffffffffffffffffff1673ffffffffffffffffffffffffffffffffffffffff16815260200190815260200160002060008282546123bb91906130c7565b92505081905550600e60008373ffffffffffffffffffffffffffffffffffffffff1673ffffffffffffffffffffffffffffffffffffffff16815260200190815260200160002060009054906101000a900473ffffffffffffffffffffffffffffffffffffffff1673ffffffffffffffffffffffffffffffffffffffff1663957908d16040518163ffffffff1660e01b8152600401600060405180830381600087803b15801561246957600080fd5b505af115801561247d573d6000803e3d6000fd5b50505050600e60008373ffffffffffffffffffffffffffffffffffffffff1673ffffffffffffffffffffffffffffffffffffffff16815260200190815260200160002060009054906101000a900473ffffffffffffffffffffffffffffffffffffffff1673ffffffffffffffffffffffffffffffffffffffff1663681fe70c6040518163ffffffff1660e01b815260040160206040518083038186803b15801561252657600080fd5b505afa15801561253a573d6000803e3d6000fd5b505050506040513d601f19601f8201168201806040525081019061255e9190612dba565b156125685761264c565b600e60008373ffffffffffffffffffffffffffffffffffffffff1673ffffffffffffffffffffffffffffffffffffffff16815260200190815260200160002060009054906101000a900473ffffffffffffffffffffffffffffffffffffffff1673ffffffffffffffffffffffffffffffffffffffff16635af7b35a6040518163ffffffff1660e01b815260040160206040518083038186803b15801561260d57600080fd5b505afa158015612621573d6000803e3d6000fd5b505050506040513d601f19601f820116820180604052508101906126459190612e0c565b90506120ae565b612695600d60008473ffffffffffffffffffffffffffffffffffffffff1673ffffffffffffffffffffffffffffffffffffffff1681526020019081526020016000205483611518565b505050565b6000600a60003373ffffffffffffffffffffffffffffffffffffffff1673ffffffffffffffffffffffffffffffffffffffff16815260200190815260200160002054905060008111612721576040517f08c379a000000000000000000000000000000000000000000000000000000000815260040161271890613032565b60405180910390fd5b600860009054906101000a900473ffffffffffffffffffffffffffffffffffffffff1673ffffffffffffffffffffffffffffffffffffffff1663a9059cbb33836040518363ffffffff1660e01b815260040161277e929190612f9d565b602060405180830381600087803b15801561279857600080fd5b505af11580156127ac573d6000803e3d6000fd5b505050506040513d601f19601f820116820180604052508101906127d09190612dba565b506127da33611b09565b6000600a60003373ffffffffffffffffffffffffffffffffffffffff1673ffffffffffffffffffffffffffffffffffffffff168152602001908152602001600020819055506000600c60003373ffffffffffffffffffffffffffffffffffffffff1673ffffffffffffffffffffffffffffffffffffffff16815260200190815260200160002060006101000a81548160ff02191690831515021790555050565b60036020528060005260406000206000915090508060000160009054906101000a900473ffffffffffffffffffffffffffffffffffffffff16908060010160009054906101000a900473ffffffffffffffffffffffffffffffffffffffff16908060030154905083565b60008054906101000a900473ffffffffffffffffffffffffffffffffffffffff1673ffffffffffffffffffffffffffffffffffffffff163373ffffffffffffffffffffffffffffffffffffffff161461293c57600080fd5b806004600060026000815461295090613276565b91905081905581526020019081526020016000208190555050565b6000600660003373ffffffffffffffffffffffffffffffffffffffff1673ffffffffffffffffffffffffffffffffffffffff16815260200190815260200160002054600d60003373ffffffffffffffffffffffffffffffffffffffff1673ffffffffffffffffffffffffffffffffffffffff168152602001908152602001600020546129f791906130c7565b90506000600d60003373ffffffffffffffffffffffffffffffffffffffff1673ffffffffffffffffffffffffffffffffffffffff168152602001908152602001600020819055506000600660003373ffffffffffffffffffffffffffffffffffffffff1673ffffffffffffffffffffffffffffffffffffffff16815260200190815260200160002081905550600860009054906101000a900473ffffffffffffffffffffffffffffffffffffffff1673ffffffffffffffffffffffffffffffffffffffff1663a9059cbb33836040518363ffffffff1660e01b8152600401612ae0929190612f9d565b602060405180830381600087803b158015612afa57600080fd5b505af1158015612b0e573d6000803e3d6000fd5b505050506040513d601f19601f82011682018060405250810190612b329190612dba565b5050565b600b6020528060005260406000206000915054906101000a900460ff1681565b60015481565b60056020528060005260406000206000915090505481565b60078181548110612b8457600080fd5b90600052602060002090600402016000915090508060000160009054906101000a900473ffffffffffffffffffffffffffffffffffffffff16908060010160009054906101000a900473ffffffffffffffffffffffffffffffffffffffff16908060030154905083565b600860009054906101000a900473ffffffffffffffffffffffffffffffffffffffff1681565b60098181548110612c2457600080fd5b906000526020600020016000915054906101000a900473ffffffffffffffffffffffffffffffffffffffff1681565b6104f18061336383390190565b828054828255906000526020600020908101928215612c9c579160200282015b82811115612c9b578251825591602001919060010190612c80565b5b509050612ca99190612d20565b5090565b828054828255906000526020600020908101928215612cee5760005260206000209182015b82811115612ced578254825591600101919060010190612cd2565b5b509050612cfb9190612d20565b5090565b5080546000825590600052602060002090810190612d1d9190612d20565b50565b5b80821115612d39576000816000905550600101612d21565b5090565b600081359050612d4c8161331d565b92915050565b600081519050612d6181613334565b92915050565b600081359050612d768161334b565b92915050565b600081519050612d8b8161334b565b92915050565b600060208284031215612da357600080fd5b6000612db184828501612d3d565b91505092915050565b600060208284031215612dcc57600080fd5b6000612dda84828501612d52565b91505092915050565b600060208284031215612df557600080fd5b6000612e0384828501612d67565b91505092915050565b600060208284031215612e1e57600080fd5b6000612e2c84828501612d7c565b91505092915050565b60008060408385031215612e4857600080fd5b6000612e5685828601612d67565b9250506020612e6785828601612d3d565b9150509250929050565b612e7a816131dc565b82525050565b612e89816131ee565b82525050565b612e98816131fa565b82525050565b612ea78161322e565b82525050565b612eb681613252565b82525050565b6000612ec96013836130b6565b91507f62616c616e63652063616e6e6f742062652030000000000000000000000000006000830152602082019050919050565b6000612f096012836130b6565b91507f616d6f756e742063616e6e6f74206265203000000000000000000000000000006000830152602082019050919050565b612f4581613224565b82525050565b6000602082019050612f606000830184612e71565b92915050565b6000606082019050612f7b6000830186612e71565b612f886020830185612e71565b612f956040830184612f3c565b949350505050565b6000604082019050612fb26000830185612e71565b612fbf6020830184612f3c565b9392505050565b6000602082019050612fdb6000830184612e80565b92915050565b6000602082019050612ff66000830184612e8f565b92915050565b60006020820190506130116000830184612e9e565b92915050565b600060208201905061302c6000830184612ead565b92915050565b6000602082019050818103600083015261304b81612ebc565b9050919050565b6000602082019050818103600083015261306b81612efc565b9050919050565b60006020820190506130876000830184612f3c565b92915050565b60006040820190506130a26000830185612f3c565b6130af6020830184612f3c565b9392505050565b600082825260208201905092915050565b60006130d282613224565b91506130dd83613224565b9250827fffffffffffffffffffffffffffffffffffffffffffffffffffffffffffffffff03821115613112576131116132bf565b5b828201905092915050565b600061312882613224565b915061313383613224565b925082613143576131426132ee565b5b828204905092915050565b600061315982613224565b915061316483613224565b9250817fffffffffffffffffffffffffffffffffffffffffffffffffffffffffffffffff048311821515161561319d5761319c6132bf565b5b828202905092915050565b60006131b382613224565b91506131be83613224565b9250828210156131d1576131d06132bf565b5b828203905092915050565b60006131e782613204565b9050919050565b60008115159050919050565b6000819050919050565b600073ffffffffffffffffffffffffffffffffffffffff82169050919050565b6000819050919050565b600061323982613240565b9050919050565b600061324b82613204565b9050919050565b600061325d82613264565b9050919050565b600061326f82613204565b9050919050565b600061328182613224565b91507fffffffffffffffffffffffffffffffffffffffffffffffffffffffffffffffff8214156132b4576132b36132bf565b5b600182019050919050565b7f4e487b7100000000000000000000000000000000000000000000000000000000600052601160045260246000fd5b7f4e487b7100000000000000000000000000000000000000000000000000000000600052601260045260246000fd5b613326816131dc565b811461333157600080fd5b50565b61333d816131ee565b811461334857600080fd5b50565b61335481613224565b811461335f57600080fd5b5056fe608060405260018055600060025534801561001957600080fd5b506104c8806100296000396000f3fe608060405234801561001057600080fd5b50600436106100935760003560e01c80635af7b35a116100665780635af7b35a14610110578063681fe70c1461012e578063957908d11461014c578063982d64d414610156578063ddf0b0091461017257610093565b806318f70f9614610098578063238149bc146100b65780633df4ddf4146100d457806347799da8146100f2575b600080fd5b6100a06101a3565b6040516100ad919061039c565b60405180910390f35b6100be6101c2565b6040516100cb919061039c565b60405180910390f35b6100dc6101ca565b6040516100e9919061039c565b60405180910390f35b6100fa6101d0565b604051610107919061039c565b60405180910390f35b6101186101d6565b604051610125919061039c565b60405180910390f35b6101366101f5565b6040516101439190610381565b60405180910390f35b610154610214565b005b610170600480360381019061016b9190610327565b610267565b005b61018c600480360381019061018791906102fe565b6102c5565b60405161019a9291906103b7565b60405180910390f35b6000806000600154815260200190815260200160002060000154905090565b600042905090565b60015481565b60025481565b6000806000600154815260200190815260200160002060010154905090565b6000600254600154111561020c5760019050610211565b600090505b90565b600154600254101561022557600080fd5b600080600154815260200190815260200160002060008082016000905560018201600090555050600180600082825461025e91906103e0565b92505081905550565b60016002600082825461027a91906103e0565b92505081905550604051806040016040528083815260200182815250600080600254815260200190815260200160002060008201518160000155602082015181600101559050505050565b60006020528060005260406000206000915090508060000154908060010154905082565b6000813590506102f88161047b565b92915050565b60006020828403121561031057600080fd5b600061031e848285016102e9565b91505092915050565b6000806040838503121561033a57600080fd5b6000610348858286016102e9565b9250506020610359858286016102e9565b9150509250929050565b61036c81610436565b82525050565b61037b81610442565b82525050565b60006020820190506103966000830184610363565b92915050565b60006020820190506103b16000830184610372565b92915050565b60006040820190506103cc6000830185610372565b6103d96020830184610372565b9392505050565b60006103eb82610442565b91506103f683610442565b9250827fffffffffffffffffffffffffffffffffffffffffffffffffffffffffffffffff0382111561042b5761042a61044c565b5b828201905092915050565b60008115159050919050565b6000819050919050565b7f4e487b7100000000000000000000000000000000000000000000000000000000600052601160045260246000fd5b61048481610442565b811461048f57600080fd5b5056fea264697066735822122036bcea49a97b774ad09f76eff2bbb6a7c0f803c78a570a96d0d2894cb23ee29764736f6c63430008000033a2646970667358221220019bfcdcf4bb0f66ff869804a3d688c7bc677059160fb15c482e393e5a26439164736f6c63430008000033",
  "immutableReferences": {},
  "source": "// SPDX-License-Identifier: MIT\r\npragma solidity ^0.8.0;\r\n\r\nimport \"./LivToken.sol\";\r\nimport \"./Referral.sol\";\r\nimport \"./Queue.sol\";\r\n// import \"./DaiToken.sol\";\r\n\r\ncontract Staking is Referral{\r\n\r\n  LivToken public livToken;\r\n\r\n  address[] public stakers;\r\n  mapping(address => uint) public stakingBalance;\r\n  mapping(address => bool) public hasStaked;\r\n  mapping(address => bool) public isStaking;\r\n  mapping(address => uint) public rewards;\r\n  mapping(address => Queue) public depositQueue;\r\n  \r\n  \r\n  constructor(LivToken _livToken) Referral(){\r\n     livToken = _livToken;\r\n     owner = msg.sender;\r\n  }\r\n    \r\n    function stakeWithoutParent(uint _amount) public {\r\n        stakeTokens(_amount, address(0));\r\n    }\r\n  function stakeTokens(uint _amount, address _parent) public{\r\n\r\n    require(_amount > 0, \"amount cannot be 0\");\r\n    livToken.transferFrom(msg.sender, address(this), _amount);\r\n    \r\n    \r\n    stakingBalance[msg.sender] = stakingBalance[msg.sender] + _amount;\r\n    \r\n    if(!hasStaked[msg.sender]) {\r\n      stakers.push(msg.sender);\r\n      depositQueue[msg.sender] = new Queue();\r\n    }\r\n    depositQueue[msg.sender].enqueue(_amount, block.timestamp);\r\n    addUser(_parent);\r\n    distributeDepositCommissions(_amount, msg.sender);\r\n    isStaking[msg.sender] = true;\r\n    hasStaked[msg.sender] = true;\r\n  }\r\n        \r\n    function returnAddress() public view returns(address) {\r\n        return address(this);\r\n    }\r\n  function stakeOf(address _stakeholder)\r\n        public\r\n        view\r\n        returns(uint)\r\n    {\r\n        return stakingBalance[_stakeholder];\r\n    }\r\n\r\n  function calculateReward(uint apy, address stakeHolder) public {\r\n      require(!depositQueue[stakeHolder].isEmpty());\r\n        uint256 time = depositQueue[stakeHolder].returnFirstTime();\r\n     while(block.timestamp - time >= 30 days){\r\n         depositQueue[stakeHolder].enqueue(depositQueue[stakeHolder].returnFirstAmount(), time + 30 days);\r\n        rewards[stakeHolder] += depositQueue[stakeHolder].returnFirstAmount()*apy/uint(100);\r\n        depositQueue[stakeHolder].dequeue();\r\n        \r\n        if(depositQueue[stakeHolder].isEmpty()){\r\n            break;\r\n        }\r\n        time = depositQueue[stakeHolder].returnFirstTime();\r\n     }\r\n    distributeInterestCommissions(rewards[stakeHolder], stakeHolder);\r\n  }\r\n\r\n  \r\n    function rewardOf(address _stakeholder) \r\n        public\r\n        view\r\n        returns(uint)\r\n    {\r\n        return rewards[_stakeholder];\r\n    }\r\n\r\n    function withdrawReward() \r\n        public\r\n    {\r\n        uint reward = rewards[msg.sender] + commissions[msg.sender];\r\n        rewards[msg.sender] = 0;\r\n        commissions[msg.sender] = 0;\r\n        livToken.transfer(msg.sender, reward);\r\n    }\r\n\r\n  function unstakeTokens() public {\r\n    uint balance = stakingBalance[msg.sender];\r\n    require(balance > 0, \"balance cannot be 0\");\r\n\r\n    livToken.transfer(msg.sender, balance);\r\n    removeUser(msg.sender);\r\n    stakingBalance[msg.sender] = 0;\r\n    isStaking[msg.sender] = false;\r\n  }\r\n}",
  "sourcePath": "C:\\Users\\HP\\Desktop\\NaboStaking\\contracts\\StakingLiv.sol",
  "compiler": {
    "name": "solc",
    "version": "0.8.0+commit.c7dfd78e.Emscripten.clang"
  },
  "schemaVersion": "3.4.2",
  "updatedAt": "2021-08-15T18:25:37.182Z",
  "networkType": "ethereum",
  "devdoc": {
    "kind": "dev",
    "methods": {},
    "version": 1
  },
  "userdoc": {
    "kind": "user",
    "methods": {},
    "version": 1
  }
}